{
  "contractName": "RobinHoo",
  "abi": [
    {
      "inputs": [],
      "stateMutability": "nonpayable",
      "type": "constructor"
    },
    {
      "inputs": [],
      "name": "InvalidShortString",
      "type": "error"
    },
    {
      "inputs": [
        {
          "internalType": "string",
          "name": "str",
          "type": "string"
        }
      ],
      "name": "StringTooLong",
      "type": "error"
    },
    {
      "anonymous": false,
      "inputs": [
        {
          "indexed": true,
          "internalType": "address",
          "name": "owner",
          "type": "address"
        },
        {
          "indexed": true,
          "internalType": "address",
          "name": "spender",
          "type": "address"
        },
        {
          "indexed": false,
          "internalType": "uint256",
          "name": "value",
          "type": "uint256"
        }
      ],
      "name": "Approval",
      "type": "event"
    },
    {
      "anonymous": false,
      "inputs": [
        {
          "indexed": true,
          "internalType": "address",
          "name": "delegator",
          "type": "address"
        },
        {
          "indexed": true,
          "internalType": "address",
          "name": "fromDelegate",
          "type": "address"
        },
        {
          "indexed": true,
          "internalType": "address",
          "name": "toDelegate",
          "type": "address"
        }
      ],
      "name": "DelegateChanged",
      "type": "event"
    },
    {
      "anonymous": false,
      "inputs": [
        {
          "indexed": true,
          "internalType": "address",
          "name": "delegate",
          "type": "address"
        },
        {
          "indexed": false,
          "internalType": "uint256",
          "name": "previousBalance",
          "type": "uint256"
        },
        {
          "indexed": false,
          "internalType": "uint256",
          "name": "newBalance",
          "type": "uint256"
        }
      ],
      "name": "DelegateVotesChanged",
      "type": "event"
    },
    {
      "anonymous": false,
      "inputs": [],
      "name": "EIP712DomainChanged",
      "type": "event"
    },
    {
      "anonymous": false,
      "inputs": [
        {
          "indexed": true,
          "internalType": "address",
          "name": "from",
          "type": "address"
        },
        {
          "indexed": true,
          "internalType": "address",
          "name": "to",
          "type": "address"
        },
        {
          "indexed": false,
          "internalType": "uint256",
          "name": "value",
          "type": "uint256"
        }
      ],
      "name": "Transfer",
      "type": "event"
    },
    {
      "inputs": [],
      "name": "CLOCK_MODE",
      "outputs": [
        {
          "internalType": "string",
          "name": "",
          "type": "string"
        }
      ],
      "stateMutability": "view",
      "type": "function"
    },
    {
      "inputs": [],
      "name": "DOMAIN_SEPARATOR",
      "outputs": [
        {
          "internalType": "bytes32",
          "name": "",
          "type": "bytes32"
        }
      ],
      "stateMutability": "view",
      "type": "function"
    },
    {
      "inputs": [],
      "name": "admin",
      "outputs": [
        {
          "internalType": "address",
          "name": "",
          "type": "address"
        }
      ],
      "stateMutability": "view",
      "type": "function"
    },
    {
      "inputs": [
        {
          "internalType": "address",
          "name": "owner",
          "type": "address"
        },
        {
          "internalType": "address",
          "name": "spender",
          "type": "address"
        }
      ],
      "name": "allowance",
      "outputs": [
        {
          "internalType": "uint256",
          "name": "",
          "type": "uint256"
        }
      ],
      "stateMutability": "view",
      "type": "function"
    },
    {
      "inputs": [
        {
          "internalType": "address",
          "name": "spender",
          "type": "address"
        },
        {
          "internalType": "uint256",
          "name": "amount",
          "type": "uint256"
        }
      ],
      "name": "approve",
      "outputs": [
        {
          "internalType": "bool",
          "name": "",
          "type": "bool"
        }
      ],
      "stateMutability": "nonpayable",
      "type": "function"
    },
    {
      "inputs": [
        {
          "internalType": "address",
          "name": "account",
          "type": "address"
        }
      ],
      "name": "balanceOf",
      "outputs": [
        {
          "internalType": "uint256",
          "name": "",
          "type": "uint256"
        }
      ],
      "stateMutability": "view",
      "type": "function"
    },
    {
      "inputs": [
        {
          "internalType": "address",
          "name": "account",
          "type": "address"
        },
        {
          "internalType": "uint32",
          "name": "pos",
          "type": "uint32"
        }
      ],
      "name": "checkpoints",
      "outputs": [
        {
          "components": [
            {
              "internalType": "uint32",
              "name": "fromBlock",
              "type": "uint32"
            },
            {
              "internalType": "uint224",
              "name": "votes",
              "type": "uint224"
            }
          ],
          "internalType": "struct ERC20Votes.Checkpoint",
          "name": "",
          "type": "tuple"
        }
      ],
      "stateMutability": "view",
      "type": "function"
    },
    {
      "inputs": [],
      "name": "clock",
      "outputs": [
        {
          "internalType": "uint48",
          "name": "",
          "type": "uint48"
        }
      ],
      "stateMutability": "view",
      "type": "function"
    },
    {
      "inputs": [],
      "name": "decimals",
      "outputs": [
        {
          "internalType": "uint8",
          "name": "",
          "type": "uint8"
        }
      ],
      "stateMutability": "view",
      "type": "function"
    },
    {
      "inputs": [
        {
          "internalType": "address",
          "name": "spender",
          "type": "address"
        },
        {
          "internalType": "uint256",
          "name": "subtractedValue",
          "type": "uint256"
        }
      ],
      "name": "decreaseAllowance",
      "outputs": [
        {
          "internalType": "bool",
          "name": "",
          "type": "bool"
        }
      ],
      "stateMutability": "nonpayable",
      "type": "function"
    },
    {
      "inputs": [
        {
          "internalType": "address",
          "name": "delegatee",
          "type": "address"
        }
      ],
      "name": "delegate",
      "outputs": [],
      "stateMutability": "nonpayable",
      "type": "function"
    },
    {
      "inputs": [
        {
          "internalType": "address",
          "name": "delegatee",
          "type": "address"
        },
        {
          "internalType": "uint256",
          "name": "nonce",
          "type": "uint256"
        },
        {
          "internalType": "uint256",
          "name": "expiry",
          "type": "uint256"
        },
        {
          "internalType": "uint8",
          "name": "v",
          "type": "uint8"
        },
        {
          "internalType": "bytes32",
          "name": "r",
          "type": "bytes32"
        },
        {
          "internalType": "bytes32",
          "name": "s",
          "type": "bytes32"
        }
      ],
      "name": "delegateBySig",
      "outputs": [],
      "stateMutability": "nonpayable",
      "type": "function"
    },
    {
      "inputs": [
        {
          "internalType": "address",
          "name": "account",
          "type": "address"
        }
      ],
      "name": "delegates",
      "outputs": [
        {
          "internalType": "address",
          "name": "",
          "type": "address"
        }
      ],
      "stateMutability": "view",
      "type": "function"
    },
    {
      "inputs": [],
      "name": "eip712Domain",
      "outputs": [
        {
          "internalType": "bytes1",
          "name": "fields",
          "type": "bytes1"
        },
        {
          "internalType": "string",
          "name": "name",
          "type": "string"
        },
        {
          "internalType": "string",
          "name": "version",
          "type": "string"
        },
        {
          "internalType": "uint256",
          "name": "chainId",
          "type": "uint256"
        },
        {
          "internalType": "address",
          "name": "verifyingContract",
          "type": "address"
        },
        {
          "internalType": "bytes32",
          "name": "salt",
          "type": "bytes32"
        },
        {
          "internalType": "uint256[]",
          "name": "extensions",
          "type": "uint256[]"
        }
      ],
      "stateMutability": "view",
      "type": "function"
    },
    {
      "inputs": [
        {
          "internalType": "uint256",
          "name": "timepoint",
          "type": "uint256"
        }
      ],
      "name": "getPastTotalSupply",
      "outputs": [
        {
          "internalType": "uint256",
          "name": "",
          "type": "uint256"
        }
      ],
      "stateMutability": "view",
      "type": "function"
    },
    {
      "inputs": [
        {
          "internalType": "address",
          "name": "account",
          "type": "address"
        },
        {
          "internalType": "uint256",
          "name": "timepoint",
          "type": "uint256"
        }
      ],
      "name": "getPastVotes",
      "outputs": [
        {
          "internalType": "uint256",
          "name": "",
          "type": "uint256"
        }
      ],
      "stateMutability": "view",
      "type": "function"
    },
    {
      "inputs": [
        {
          "internalType": "address",
          "name": "account",
          "type": "address"
        }
      ],
      "name": "getVotes",
      "outputs": [
        {
          "internalType": "uint256",
          "name": "",
          "type": "uint256"
        }
      ],
      "stateMutability": "view",
      "type": "function"
    },
    {
      "inputs": [
        {
          "internalType": "address",
          "name": "spender",
          "type": "address"
        },
        {
          "internalType": "uint256",
          "name": "addedValue",
          "type": "uint256"
        }
      ],
      "name": "increaseAllowance",
      "outputs": [
        {
          "internalType": "bool",
          "name": "",
          "type": "bool"
        }
      ],
      "stateMutability": "nonpayable",
      "type": "function"
    },
    {
      "inputs": [],
      "name": "name",
      "outputs": [
        {
          "internalType": "string",
          "name": "",
          "type": "string"
        }
      ],
      "stateMutability": "view",
      "type": "function"
    },
    {
      "inputs": [
        {
          "internalType": "address",
          "name": "owner",
          "type": "address"
        }
      ],
      "name": "nonces",
      "outputs": [
        {
          "internalType": "uint256",
          "name": "",
          "type": "uint256"
        }
      ],
      "stateMutability": "view",
      "type": "function"
    },
    {
      "inputs": [
        {
          "internalType": "address",
          "name": "account",
          "type": "address"
        }
      ],
      "name": "numCheckpoints",
      "outputs": [
        {
          "internalType": "uint32",
          "name": "",
          "type": "uint32"
        }
      ],
      "stateMutability": "view",
      "type": "function"
    },
    {
      "inputs": [],
      "name": "pendingAdmin",
      "outputs": [
        {
          "internalType": "address",
          "name": "",
          "type": "address"
        }
      ],
      "stateMutability": "view",
      "type": "function"
    },
    {
      "inputs": [
        {
          "internalType": "address",
          "name": "owner",
          "type": "address"
        },
        {
          "internalType": "address",
          "name": "spender",
          "type": "address"
        },
        {
          "internalType": "uint256",
          "name": "value",
          "type": "uint256"
        },
        {
          "internalType": "uint256",
          "name": "deadline",
          "type": "uint256"
        },
        {
          "internalType": "uint8",
          "name": "v",
          "type": "uint8"
        },
        {
          "internalType": "bytes32",
          "name": "r",
          "type": "bytes32"
        },
        {
          "internalType": "bytes32",
          "name": "s",
          "type": "bytes32"
        }
      ],
      "name": "permit",
      "outputs": [],
      "stateMutability": "nonpayable",
      "type": "function"
    },
    {
      "inputs": [],
      "name": "punishmentFee",
      "outputs": [
        {
          "internalType": "uint256",
          "name": "",
          "type": "uint256"
        }
      ],
      "stateMutability": "view",
      "type": "function"
    },
    {
      "inputs": [],
      "name": "symbol",
      "outputs": [
        {
          "internalType": "string",
          "name": "",
          "type": "string"
        }
      ],
      "stateMutability": "view",
      "type": "function"
    },
    {
      "inputs": [],
      "name": "totalSupply",
      "outputs": [
        {
          "internalType": "uint256",
          "name": "",
          "type": "uint256"
        }
      ],
      "stateMutability": "view",
      "type": "function"
    },
    {
      "inputs": [
        {
          "internalType": "address",
          "name": "to",
          "type": "address"
        },
        {
          "internalType": "uint256",
          "name": "amount",
          "type": "uint256"
        }
      ],
      "name": "transfer",
      "outputs": [
        {
          "internalType": "bool",
          "name": "",
          "type": "bool"
        }
      ],
      "stateMutability": "nonpayable",
      "type": "function"
    },
    {
      "inputs": [
        {
          "internalType": "address",
          "name": "from",
          "type": "address"
        },
        {
          "internalType": "address",
          "name": "to",
          "type": "address"
        },
        {
          "internalType": "uint256",
          "name": "amount",
          "type": "uint256"
        }
      ],
      "name": "transferFrom",
      "outputs": [
        {
          "internalType": "bool",
          "name": "",
          "type": "bool"
        }
      ],
      "stateMutability": "nonpayable",
      "type": "function"
    },
    {
      "inputs": [
        {
          "internalType": "address",
          "name": "_newDex",
          "type": "address"
        }
      ],
      "name": "toggleDex",
      "outputs": [],
      "stateMutability": "nonpayable",
      "type": "function"
    },
    {
      "inputs": [
        {
          "internalType": "uint256",
          "name": "_newFee",
          "type": "uint256"
        }
      ],
      "name": "setPunishmentFee",
      "outputs": [],
      "stateMutability": "nonpayable",
      "type": "function"
    },
    {
      "inputs": [
        {
          "internalType": "address",
          "name": "_newAdmin",
          "type": "address"
        }
      ],
      "name": "transferAdmin",
      "outputs": [],
      "stateMutability": "nonpayable",
      "type": "function"
    },
    {
      "inputs": [],
      "name": "renounceAdmin",
      "outputs": [],
      "stateMutability": "nonpayable",
      "type": "function"
    },
    {
      "inputs": [],
      "name": "acceptAdmin",
      "outputs": [],
      "stateMutability": "nonpayable",
      "type": "function"
    }
  ],
  "bytecode": "0x6101606040523480156200001257600080fd5b506040518060400160405280600d81526020017f526f62696e486f6f20436f696e00000000000000000000000000000000000000815250806040518060400160405280600181526020017f31000000000000000000000000000000000000000000000000000000000000008152506040518060400160405280600d81526020017f526f62696e486f6f20436f696e000000000000000000000000000000000000008152506040518060400160405280600881526020017f524f42494e484f4f0000000000000000000000000000000000000000000000008152508160039081620000fd919062001c8c565b5080600490816200010f919062001c8c565b5050506200012d6005836200024c60201b6200174a1790919060201c565b6101208181525050620001506006826200024c60201b6200174a1790919060201c565b6101408181525050818051906020012060e08181525050808051906020012061010081815250504660a081815250506200018f620002a960201b60201c565b608081815250503073ffffffffffffffffffffffffffffffffffffffff1660c08173ffffffffffffffffffffffffffffffffffffffff1681525050505050620001ed336d2bd35ae79a49ed3975a215e000006200030660201b60201c565b33600c60006101000a81548173ffffffffffffffffffffffffffffffffffffffff021916908373ffffffffffffffffffffffffffffffffffffffff160217905550620186a0600162000240919062001da2565b600e819055506200267c565b600060208351101562000272576200026a83620003c460201b60201c565b9050620002a3565b8262000289836200043160201b6200178e1760201c565b60000190816200029a919062001c8c565b5060ff60001b90505b92915050565b60007f8b73c3c69bb8fe3d512ecc4cf759cc79239f7b179b0ffacaa9a75d522b39400f60e051610100514630604051602001620002eb95949392919062001e5e565b60405160208183030381529060405280519060200120905090565b6200031d82826200043b60201b620017981760201c565b6200032d620005a860201b60201c565b7bffffffffffffffffffffffffffffffffffffffffffffffffffffffff166200035b620005cc60201b60201c565b11156200039f576040517f08c379a0000000000000000000000000000000000000000000000000000000008152600401620003969062001f42565b60405180910390fd5b620003be600b620005d660201b620018ee1783620005ee60201b60201c565b50505050565b600080829050601f815111156200041457826040517f305a27a90000000000000000000000000000000000000000000000000000000081526004016200040b919062001fe2565b60405180910390fd5b805181620004229062002038565b60001c1760001b915050919050565b6000819050919050565b600073ffffffffffffffffffffffffffffffffffffffff168273ffffffffffffffffffffffffffffffffffffffff1603620004ad576040517f08c379a0000000000000000000000000000000000000000000000000000000008152600401620004a490620020f8565b60405180910390fd5b620004c1600083836200091360201b60201c565b8060026000828254620004d591906200211a565b92505081905550806000808473ffffffffffffffffffffffffffffffffffffffff1673ffffffffffffffffffffffffffffffffffffffff168152602001908152602001600020600082825401925050819055508173ffffffffffffffffffffffffffffffffffffffff16600073ffffffffffffffffffffffffffffffffffffffff167fddf252ad1be2c89b69c2b068fc378daa952ba7f163c4a11628f55a4df523b3ef8360405162000588919062002155565b60405180910390a3620005a46000838362000d2c60201b60201c565b5050565b60007bffffffffffffffffffffffffffffffffffffffffffffffffffffffff905090565b6000600254905090565b60008183620005e691906200211a565b905092915050565b6000806000858054905090506000808214620006be5762000619876001840362000d7c60201b60201c565b6040518060400160405290816000820160009054906101000a900463ffffffff1663ffffffff1663ffffffff1681526020016000820160049054906101000a90047bffffffffffffffffffffffffffffffffffffffffffffffffffffffff167bffffffffffffffffffffffffffffffffffffffffffffffffffffffff167bffffffffffffffffffffffffffffffffffffffffffffffffffffffff1681525050620006fa565b6040518060400160405280600063ffffffff16815260200160007bffffffffffffffffffffffffffffffffffffffffffffffffffffffff168152505b905080602001517bffffffffffffffffffffffffffffffffffffffffffffffffffffffff1693506200072d84868860201c565b92506000821180156200076057506200074b62000d9160201b60201c565b65ffffffffffff16816000015163ffffffff16145b15620007e8576200077c8362000dae60201b620019041760201c565b62000791886001850362000d7c60201b60201c565b60000160046101000a8154817bffffffffffffffffffffffffffffffffffffffffffffffffffffffff02191690837bffffffffffffffffffffffffffffffffffffffffffffffffffffffff16021790555062000909565b866040518060400160405280620008216200080862000d9160201b60201c565b65ffffffffffff1662000e1c60201b6200196f1760201c565b63ffffffff168152602001620008428662000dae60201b620019041760201c565b7bffffffffffffffffffffffffffffffffffffffffffffffffffffffff168152509080600181540180825580915050600190039060005260206000200160009091909190915060008201518160000160006101000a81548163ffffffff021916908363ffffffff16021790555060208201518160000160046101000a8154817bffffffffffffffffffffffffffffffffffffffffffffffffffffffff02191690837bffffffffffffffffffffffffffffffffffffffffffffffffffffffff16021790555050505b5050935093915050565b6000600f60008573ffffffffffffffffffffffffffffffffffffffff1673ffffffffffffffffffffffffffffffffffffffff1681526020019081526020016000205490506000600f60008573ffffffffffffffffffffffffffffffffffffffff1673ffffffffffffffffffffffffffffffffffffffff1681526020019081526020016000205490504282108015620009aa57504281105b1562000a65576000620009c9601662000e7260201b620019c21760201c565b905060005b815181101562000a62576000620009f582601662000e9b60201b620019e31790919060201c565b905062000a1281601062000ebd60201b620019fd1790919060201c565b5062000a2e81601362000ebd60201b620019fd1790919060201c565b5062000a4a81601662000ef560201b62001a2d1790919060201c565b5050808062000a599062002172565b915050620009ce565b50505b600082111562000bc55762000a8a84601662000f2d60201b62001a5d1790919060201c565b5062000aa88484601062000f6560201b62001a8d179092919060201c565b504282101562000afc5742600f60008773ffffffffffffffffffffffffffffffffffffffff1673ffffffffffffffffffffffffffffffffffffffff1681526020019081526020016000208190555062000b83565b42820362000b5c5760014262000b1391906200211a565b600f60008773ffffffffffffffffffffffffffffffffffffffff1673ffffffffffffffffffffffffffffffffffffffff1681526020019081526020016000208190555062000b82565b62000b8162000b7360138662000fa260201b60201c565b85856200101660201b60201c565b5b5b83601860006101000a81548173ffffffffffffffffffffffffffffffffffffffff021916908373ffffffffffffffffffffffffffffffffffffffff1602179055505b600081111562000d255762000bea85601662000f2d60201b62001a5d1790919060201c565b5062000c088584601362000f6560201b62001a8d179092919060201c565b504281101562000c5c5742600f60008673ffffffffffffffffffffffffffffffffffffffff1673ffffffffffffffffffffffffffffffffffffffff1681526020019081526020016000208190555062000ce3565b42810362000cbc5760014262000c7391906200211a565b600f60008673ffffffffffffffffffffffffffffffffffffffff1673ffffffffffffffffffffffffffffffffffffffff1681526020019081526020016000208190555062000ce2565b62000ce162000cd360108762000fa260201b60201c565b86856200101660201b60201c565b5b5b84601960006101000a81548173ffffffffffffffffffffffffffffffffffffffff021916908373ffffffffffffffffffffffffffffffffffffffff1602179055505b5050505050565b62000d44838383620010c760201b62001ac21760201c565b62000d7762000d5984620010cc60201b60201c565b62000d6a84620010cc60201b60201c565b836200113560201b60201c565b505050565b60008260005281602060002001905092915050565b600062000da9436200135860201b62001ac71760201c565b905090565b60007bffffffffffffffffffffffffffffffffffffffffffffffffffffffff801682111562000e14576040517f08c379a000000000000000000000000000000000000000000000000000000000815260040162000e0b9062002235565b60405180910390fd5b819050919050565b600063ffffffff801682111562000e6a576040517f08c379a000000000000000000000000000000000000000000000000000000000815260040162000e6190620022cd565b60405180910390fd5b819050919050565b6060600062000e8a83600001620013b060201b60201c565b905060608190508092505050919050565b600062000eb283600001836200140e60201b60201c565b60001c905092915050565b600062000eed836000018373ffffffffffffffffffffffffffffffffffffffff1660001b6200143c60201b60201c565b905092915050565b600062000f25836000018373ffffffffffffffffffffffffffffffffffffffff1660001b6200147c60201b60201c565b905092915050565b600062000f5d836000018373ffffffffffffffffffffffffffffffffffffffff1660001b620015a060201b60201c565b905092915050565b600062000f99846000018473ffffffffffffffffffffffffffffffffffffffff1660001b8460001b6200161a60201b60201c565b90509392505050565b600062000fbe82846200165c60201b62001b1c1790919060201c565b156200100b5762001003600162000fe160166200169460201b62001b4c1760201c565b62000fed9190620022ef565b601662000e9b60201b620019e31790919060201c565b905062001010565b600090505b92915050565b600073ffffffffffffffffffffffffffffffffffffffff168373ffffffffffffffffffffffffffffffffffffffff160315620010c2578173ffffffffffffffffffffffffffffffffffffffff168373ffffffffffffffffffffffffffffffffffffffff160315620010c257620010c182846064620186a0600e54866200109d919062001da2565b620010a9919062002359565b620010b5919062002359565b620016b160201b60201c565b5b505050565b505050565b6000600960008373ffffffffffffffffffffffffffffffffffffffff1673ffffffffffffffffffffffffffffffffffffffff16815260200190815260200160002060009054906101000a900473ffffffffffffffffffffffffffffffffffffffff169050919050565b8173ffffffffffffffffffffffffffffffffffffffff168373ffffffffffffffffffffffffffffffffffffffff1614158015620011725750600081115b156200135357600073ffffffffffffffffffffffffffffffffffffffff168373ffffffffffffffffffffffffffffffffffffffff161462001265576000806200120c600a60008773ffffffffffffffffffffffffffffffffffffffff1673ffffffffffffffffffffffffffffffffffffffff1681526020019081526020016000206200194260201b62001b611785620005ee60201b60201c565b915091508473ffffffffffffffffffffffffffffffffffffffff167fdec2bacdd2f05b59de34da9b523dff8be42e5e38e818c82fdb0bae774387a72483836040516200125a92919062002391565b60405180910390a250505b600073ffffffffffffffffffffffffffffffffffffffff168273ffffffffffffffffffffffffffffffffffffffff16146200135257600080620012f9600a60008673ffffffffffffffffffffffffffffffffffffffff1673ffffffffffffffffffffffffffffffffffffffff168152602001908152602001600020620005d660201b620018ee1785620005ee60201b60201c565b915091508373ffffffffffffffffffffffffffffffffffffffff167fdec2bacdd2f05b59de34da9b523dff8be42e5e38e818c82fdb0bae774387a72483836040516200134792919062002391565b60405180910390a250505b5b505050565b600065ffffffffffff8016821115620013a8576040517f08c379a00000000000000000000000000000000000000000000000000000000081526004016200139f9062002434565b60405180910390fd5b819050919050565b6060816000018054806020026020016040519081016040528092919081815260200182805480156200140257602002820191906000526020600020905b815481526020019060010190808311620013ed575b50505050509050919050565b600082600001828154811062001429576200142862002456565b5b9060005260206000200154905092915050565b6000826002016000838152602001908152602001600020600090556200147482846000016200195a60201b62001b771790919060201c565b905092915050565b6000808360010160008481526020019081526020016000205490506000811462001594576000600182620014b19190620022ef565b9050600060018660000180549050620014cb9190620022ef565b905081811462001541576000866000018281548110620014f057620014ef62002456565b5b906000526020600020015490508087600001848154811062001517576200151662002456565b5b90600052602060002001819055508387600101600083815260200190815260200160002081905550505b8560000180548062001558576200155762002485565b5b6001900381819060005260206000200160009055905585600101600086815260200190815260200160002060009055600193505050506200159a565b60009150505b92915050565b6000620015b483836200197960201b60201c565b6200160f57826000018290806001815401808255809150506001900390600052602060002001600090919091909150558260000180549050836001016000848152602001908152602001600020819055506001905062001614565b600090505b92915050565b600081846002016000858152602001908152602001600020819055506200165383856000016200199c60201b62001b8e1790919060201c565b90509392505050565b60006200168c836000018373ffffffffffffffffffffffffffffffffffffffff1660001b620019bb60201b60201c565b905092915050565b6000620016aa82600001620019e260201b60201c565b9050919050565b600073ffffffffffffffffffffffffffffffffffffffff168373ffffffffffffffffffffffffffffffffffffffff160362001723576040517f08c379a00000000000000000000000000000000000000000000000000000000081526004016200171a906200252a565b60405180910390fd5b600073ffffffffffffffffffffffffffffffffffffffff168273ffffffffffffffffffffffffffffffffffffffff160362001795576040517f08c379a00000000000000000000000000000000000000000000000000000000081526004016200178c90620025c2565b60405180910390fd5b620017a88383836200091360201b60201c565b60008060008573ffffffffffffffffffffffffffffffffffffffff1673ffffffffffffffffffffffffffffffffffffffff1681526020019081526020016000205490508181101562001831576040517f08c379a000000000000000000000000000000000000000000000000000000000815260040162001828906200265a565b60405180910390fd5b8181036000808673ffffffffffffffffffffffffffffffffffffffff1673ffffffffffffffffffffffffffffffffffffffff16815260200190815260200160002081905550816000808573ffffffffffffffffffffffffffffffffffffffff1673ffffffffffffffffffffffffffffffffffffffff168152602001908152602001600020600082825401925050819055508273ffffffffffffffffffffffffffffffffffffffff168473ffffffffffffffffffffffffffffffffffffffff167fddf252ad1be2c89b69c2b068fc378daa952ba7f163c4a11628f55a4df523b3ef8460405162001921919062002155565b60405180910390a36200193c84848462000d2c60201b60201c565b50505050565b60008183620019529190620022ef565b905092915050565b60006200197183600001836200147c60201b60201c565b905092915050565b600080836001016000848152602001908152602001600020541415905092915050565b6000620019b38360000183620015a060201b60201c565b905092915050565b6000620019da8284600001620019f360201b62001ba51790919060201c565b905092915050565b600081600001805490509050919050565b600062001a0a83600001836200197960201b60201c565b905092915050565b600081519050919050565b7f4e487b7100000000000000000000000000000000000000000000000000000000600052604160045260246000fd5b7f4e487b7100000000000000000000000000000000000000000000000000000000600052602260045260246000fd5b6000600282049050600182168062001a9457607f821691505b60208210810362001aaa5762001aa962001a4c565b5b50919050565b60008190508160005260206000209050919050565b60006020601f8301049050919050565b600082821b905092915050565b60006008830262001b147fffffffffffffffffffffffffffffffffffffffffffffffffffffffffffffffff8262001ad5565b62001b20868362001ad5565b95508019841693508086168417925050509392505050565b6000819050919050565b6000819050919050565b600062001b6d62001b6762001b618462001b38565b62001b42565b62001b38565b9050919050565b6000819050919050565b62001b898362001b4c565b62001ba162001b988262001b74565b84845462001ae2565b825550505050565b600090565b62001bb862001ba9565b62001bc581848462001b7e565b505050565b5b8181101562001bed5762001be160008262001bae565b60018101905062001bcb565b5050565b601f82111562001c3c5762001c068162001ab0565b62001c118462001ac5565b8101602085101562001c21578190505b62001c3962001c308562001ac5565b83018262001bca565b50505b505050565b600082821c905092915050565b600062001c616000198460080262001c41565b1980831691505092915050565b600062001c7c838362001c4e565b9150826002028217905092915050565b62001c978262001a12565b67ffffffffffffffff81111562001cb35762001cb262001a1d565b5b62001cbf825462001a7b565b62001ccc82828562001bf1565b600060209050601f83116001811462001d04576000841562001cef578287015190505b62001cfb858262001c6e565b86555062001d6b565b601f19841662001d148662001ab0565b60005b8281101562001d3e5784890151825560018201915060208501945060208101905062001d17565b8683101562001d5e578489015162001d5a601f89168262001c4e565b8355505b6001600288020188555050505b505050505050565b7f4e487b7100000000000000000000000000000000000000000000000000000000600052601160045260246000fd5b600062001daf8262001b38565b915062001dbc8362001b38565b925082820262001dcc8162001b38565b9150828204841483151762001de65762001de562001d73565b5b5092915050565b6000819050919050565b62001e028162001ded565b82525050565b62001e138162001b38565b82525050565b600073ffffffffffffffffffffffffffffffffffffffff82169050919050565b600062001e468262001e19565b9050919050565b62001e588162001e39565b82525050565b600060a08201905062001e75600083018862001df7565b62001e84602083018762001df7565b62001e93604083018662001df7565b62001ea2606083018562001e08565b62001eb1608083018462001e4d565b9695505050505050565b600082825260208201905092915050565b7f4552433230566f7465733a20746f74616c20737570706c79207269736b73206f60008201527f766572666c6f77696e6720766f74657300000000000000000000000000000000602082015250565b600062001f2a60308362001ebb565b915062001f378262001ecc565b604082019050919050565b6000602082019050818103600083015262001f5d8162001f1b565b9050919050565b60005b8381101562001f8457808201518184015260208101905062001f67565b60008484015250505050565b6000601f19601f8301169050919050565b600062001fae8262001a12565b62001fba818562001ebb565b935062001fcc81856020860162001f64565b62001fd78162001f90565b840191505092915050565b6000602082019050818103600083015262001ffe818462001fa1565b905092915050565b600081519050919050565b6000819050602082019050919050565b60006200202f825162001ded565b80915050919050565b6000620020458262002006565b82620020518462002011565b90506200205e8162002021565b92506020821015620020a1576200209c7fffffffffffffffffffffffffffffffffffffffffffffffffffffffffffffffff8360200360080262001ad5565b831692505b5050919050565b7f45524332303a206d696e7420746f20746865207a65726f206164647265737300600082015250565b6000620020e0601f8362001ebb565b9150620020ed82620020a8565b602082019050919050565b600060208201905081810360008301526200211381620020d1565b9050919050565b6000620021278262001b38565b9150620021348362001b38565b92508282019050808211156200214f576200214e62001d73565b5b92915050565b60006020820190506200216c600083018462001e08565b92915050565b60006200217f8262001b38565b91507fffffffffffffffffffffffffffffffffffffffffffffffffffffffffffffffff8203620021b457620021b362001d73565b5b600182019050919050565b7f53616665436173743a2076616c756520646f65736e27742066697420696e203260008201527f3234206269747300000000000000000000000000000000000000000000000000602082015250565b60006200221d60278362001ebb565b91506200222a82620021bf565b604082019050919050565b6000602082019050818103600083015262002250816200220e565b9050919050565b7f53616665436173743a2076616c756520646f65736e27742066697420696e203360008201527f3220626974730000000000000000000000000000000000000000000000000000602082015250565b6000620022b560268362001ebb565b9150620022c28262002257565b604082019050919050565b60006020820190508181036000830152620022e881620022a6565b9050919050565b6000620022fc8262001b38565b9150620023098362001b38565b925082820390508181111562002324576200232362001d73565b5b92915050565b7f4e487b7100000000000000000000000000000000000000000000000000000000600052601260045260246000fd5b6000620023668262001b38565b9150620023738362001b38565b9250826200238657620023856200232a565b5b828204905092915050565b6000604082019050620023a8600083018562001e08565b620023b7602083018462001e08565b9392505050565b7f53616665436173743a2076616c756520646f65736e27742066697420696e203460008201527f3820626974730000000000000000000000000000000000000000000000000000602082015250565b60006200241c60268362001ebb565b91506200242982620023be565b604082019050919050565b600060208201905081810360008301526200244f816200240d565b9050919050565b7f4e487b7100000000000000000000000000000000000000000000000000000000600052603260045260246000fd5b7f4e487b7100000000000000000000000000000000000000000000000000000000600052603160045260246000fd5b7f45524332303a207472616e736665722066726f6d20746865207a65726f20616460008201527f6472657373000000000000000000000000000000000000000000000000000000602082015250565b60006200251260258362001ebb565b91506200251f82620024b4565b604082019050919050565b60006020820190508181036000830152620025458162002503565b9050919050565b7f45524332303a207472616e7366657220746f20746865207a65726f206164647260008201527f6573730000000000000000000000000000000000000000000000000000000000602082015250565b6000620025aa60238362001ebb565b9150620025b7826200254c565b604082019050919050565b60006020820190508181036000830152620025dd816200259b565b9050919050565b7f45524332303a207472616e7366657220616d6f756e742065786365656473206260008201527f616c616e63650000000000000000000000000000000000000000000000000000602082015250565b60006200264260268362001ebb565b91506200264f82620025e4565b604082019050919050565b60006020820190508181036000830152620026758162002633565b9050919050565b60805160a05160c05160e051610100516101205161014051615280620026d76000396000610e5a01526000610e2601526000612c5501526000612c3401526000612093015260006120e90152600061211201526152806000f3fe608060405234801561001057600080fd5b50600436106101fb5760003560e01c806370a082311161011a5780639ab24eb0116100ad578063d505accf1161007c578063d505accf146105f6578063dd62ed3e14610612578063f1127ed814610642578063f6f928c514610672578063f851a4401461068e576101fb565b80639ab24eb01461054a578063a457c2d71461057a578063a9059cbb146105aa578063c3cda520146105da576101fb565b80638bad0c0a116100e95780638bad0c0a146104d45780638e539e8c146104de57806391ddadf41461050e57806395d89b411461052c576101fb565b806370a082311461043457806375829def146104645780637ecebe001461048057806384b0196e146104b0576101fb565b80633644e51511610192578063584dfa0411610161578063584dfa041461039c578063587cde1e146103b85780635c19a95c146103e85780636fcfff4514610404576101fb565b80633644e51514610300578063395093511461031e5780633a46b1a81461034e5780634bf5d7e91461037e576101fb565b806318160ddd116101ce57806318160ddd1461027657806323b872dd1461029457806326782247146102c4578063313ce567146102e2576101fb565b806306fdde0314610200578063095ea7b31461021e5780630e18b6811461024e578063133b3b8514610258575b600080fd5b6102086106ac565b60405161021591906138ce565b60405180910390f35b61023860048036038101906102339190613989565b61073e565b60405161024591906139e4565b60405180910390f35b610256610761565b005b61026061087b565b60405161026d9190613a0e565b60405180910390f35b61027e610881565b60405161028b9190613a0e565b60405180910390f35b6102ae60048036038101906102a99190613a29565b61088b565b6040516102bb91906139e4565b60405180910390f35b6102cc6108ba565b6040516102d99190613a8b565b60405180910390f35b6102ea6108e0565b6040516102f79190613ac2565b60405180910390f35b6103086108e9565b6040516103159190613af6565b60405180910390f35b61033860048036038101906103339190613989565b6108f8565b60405161034591906139e4565b60405180910390f35b61036860048036038101906103639190613989565b61092f565b6040516103759190613a0e565b60405180910390f35b6103866109d2565b60405161039391906138ce565b60405180910390f35b6103b660048036038101906103b19190613b11565b610a60565b005b6103d260048036038101906103cd9190613b11565b610bd6565b6040516103df9190613a8b565b60405180910390f35b61040260048036038101906103fd9190613b11565b610c3f565b005b61041e60048036038101906104199190613b11565b610c53565b60405161042b9190613b5d565b60405180910390f35b61044e60048036038101906104499190613b11565b610ca7565b60405161045b9190613a0e565b60405180910390f35b61047e60048036038101906104799190613b11565b610cef565b005b61049a60048036038101906104959190613b11565b610dc3565b6040516104a79190613a0e565b60405180910390f35b6104b8610e13565b6040516104cb9796959493929190613c71565b60405180910390f35b6104dc610f15565b005b6104f860048036038101906104f39190613cf5565b610fe9565b6040516105059190613a0e565b60405180910390f35b61051661104e565b6040516105239190613d43565b60405180910390f35b61053461105e565b60405161054191906138ce565b60405180910390f35b610564600480360381019061055f9190613b11565b6110f0565b6040516105719190613a0e565b60405180910390f35b610594600480360381019061058f9190613989565b6111f8565b6040516105a191906139e4565b60405180910390f35b6105c460048036038101906105bf9190613989565b61126f565b6040516105d191906139e4565b60405180910390f35b6105f460048036038101906105ef9190613db6565b611292565b005b610610600480360381019061060b9190613e43565b611396565b005b61062c60048036038101906106279190613ee5565b6114d8565b6040516106399190613a0e565b60405180910390f35b61065c60048036038101906106579190613f51565b61155f565b6040516106699190614006565b60405180910390f35b61068c60048036038101906106879190613cf5565b61166f565b005b610696611724565b6040516106a39190613a8b565b60405180910390f35b6060600380546106bb90614050565b80601f01602080910402602001604051908101604052809291908181526020018280546106e790614050565b80156107345780601f1061070957610100808354040283529160200191610734565b820191906000526020600020905b81548152906001019060200180831161071757829003601f168201915b5050505050905090565b600080610749611bbc565b9050610756818585611bc4565b600191505092915050565b600d60009054906101000a900473ffffffffffffffffffffffffffffffffffffffff1673ffffffffffffffffffffffffffffffffffffffff163373ffffffffffffffffffffffffffffffffffffffff16146107f1576040517f08c379a00000000000000000000000000000000000000000000000000000000081526004016107e8906140f3565b60405180910390fd5b600d60009054906101000a900473ffffffffffffffffffffffffffffffffffffffff16600c60006101000a81548173ffffffffffffffffffffffffffffffffffffffff021916908373ffffffffffffffffffffffffffffffffffffffff160217905550600d60006101000a81549073ffffffffffffffffffffffffffffffffffffffff0219169055565b600e5481565b6000600254905090565b600080610896611bbc565b90506108a3858285611d8d565b6108ae858585611e19565b60019150509392505050565b600d60009054906101000a900473ffffffffffffffffffffffffffffffffffffffff1681565b60006012905090565b60006108f361208f565b905090565b600080610903611bbc565b905061092481858561091585896114d8565b61091f9190614142565b611bc4565b600191505092915050565b600061093961104e565b65ffffffffffff168210610982576040517f08c379a0000000000000000000000000000000000000000000000000000000008152600401610979906141c2565b60405180910390fd5b6109ca600a60008573ffffffffffffffffffffffffffffffffffffffff1673ffffffffffffffffffffffffffffffffffffffff16815260200190815260200160002083612146565b905092915050565b6060436109dd61104e565b65ffffffffffff1614610a25576040517f08c379a0000000000000000000000000000000000000000000000000000000008152600401610a1c9061422e565b60405180910390fd5b6040518060400160405280601d81526020017f6d6f64653d626c6f636b6e756d6265722666726f6d3d64656661756c74000000815250905090565b600c60009054906101000a900473ffffffffffffffffffffffffffffffffffffffff1673ffffffffffffffffffffffffffffffffffffffff163373ffffffffffffffffffffffffffffffffffffffff1614610af0576040517f08c379a0000000000000000000000000000000000000000000000000000000008152600401610ae7906142c0565b60405180910390fd5b6000600f60008373ffffffffffffffffffffffffffffffffffffffff1673ffffffffffffffffffffffffffffffffffffffff168152602001908152602001600020541115610b82576000600f60008373ffffffffffffffffffffffffffffffffffffffff1673ffffffffffffffffffffffffffffffffffffffff16815260200190815260200160002081905550610bd3565b600142610b8f91906142e0565b600f60008373ffffffffffffffffffffffffffffffffffffffff1673ffffffffffffffffffffffffffffffffffffffff168152602001908152602001600020819055505b50565b6000600960008373ffffffffffffffffffffffffffffffffffffffff1673ffffffffffffffffffffffffffffffffffffffff16815260200190815260200160002060009054906101000a900473ffffffffffffffffffffffffffffffffffffffff169050919050565b610c50610c4a611bbc565b8261228e565b50565b6000610ca0600a60008473ffffffffffffffffffffffffffffffffffffffff1673ffffffffffffffffffffffffffffffffffffffff1681526020019081526020016000208054905061196f565b9050919050565b60008060008373ffffffffffffffffffffffffffffffffffffffff1673ffffffffffffffffffffffffffffffffffffffff168152602001908152602001600020549050919050565b600c60009054906101000a900473ffffffffffffffffffffffffffffffffffffffff1673ffffffffffffffffffffffffffffffffffffffff163373ffffffffffffffffffffffffffffffffffffffff1614610d7f576040517f08c379a0000000000000000000000000000000000000000000000000000000008152600401610d76906142c0565b60405180910390fd5b80600d60006101000a81548173ffffffffffffffffffffffffffffffffffffffff021916908373ffffffffffffffffffffffffffffffffffffffff16021790555050565b6000610e0c600760008473ffffffffffffffffffffffffffffffffffffffff1673ffffffffffffffffffffffffffffffffffffffff1681526020019081526020016000206123a8565b9050919050565b600060608060008060006060610e5360057f00000000000000000000000000000000000000000000000000000000000000006123b690919063ffffffff16565b610e8760067f00000000000000000000000000000000000000000000000000000000000000006123b690919063ffffffff16565b46306000801b600067ffffffffffffffff811115610ea857610ea7614314565b5b604051908082528060200260200182016040528015610ed65781602001602082028036833780820191505090505b507f0f00000000000000000000000000000000000000000000000000000000000000959493929190965096509650965096509650965090919293949596565b600c60009054906101000a900473ffffffffffffffffffffffffffffffffffffffff1673ffffffffffffffffffffffffffffffffffffffff163373ffffffffffffffffffffffffffffffffffffffff1614610fa5576040517f08c379a0000000000000000000000000000000000000000000000000000000008152600401610f9c906142c0565b60405180910390fd5b6000600c60006101000a81548173ffffffffffffffffffffffffffffffffffffffff021916908373ffffffffffffffffffffffffffffffffffffffff160217905550565b6000610ff361104e565b65ffffffffffff16821061103c576040517f08c379a0000000000000000000000000000000000000000000000000000000008152600401611033906141c2565b60405180910390fd5b611047600b83612146565b9050919050565b600061105943611ac7565b905090565b60606004805461106d90614050565b80601f016020809104026020016040519081016040528092919081815260200182805461109990614050565b80156110e65780601f106110bb576101008083540402835291602001916110e6565b820191906000526020600020905b8154815290600101906020018083116110c957829003601f168201915b5050505050905090565b600080600a60008473ffffffffffffffffffffffffffffffffffffffff1673ffffffffffffffffffffffffffffffffffffffff168152602001908152602001600020805490509050600081146111cf57600a60008473ffffffffffffffffffffffffffffffffffffffff1673ffffffffffffffffffffffffffffffffffffffff168152602001908152602001600020600182038154811061119457611193614343565b5b9060005260206000200160000160049054906101000a90047bffffffffffffffffffffffffffffffffffffffffffffffffffffffff166111d2565b60005b7bffffffffffffffffffffffffffffffffffffffffffffffffffffffff16915050919050565b600080611203611bbc565b9050600061121182866114d8565b905083811015611256576040517f08c379a000000000000000000000000000000000000000000000000000000000815260040161124d906143e4565b60405180910390fd5b6112638286868403611bc4565b60019250505092915050565b60008061127a611bbc565b9050611287818585611e19565b600191505092915050565b834211156112d5576040517f08c379a00000000000000000000000000000000000000000000000000000000081526004016112cc90614450565b60405180910390fd5b600061133761132f7fe48329057bfd03d55e49b547132e39cffd9c1820ad7b9d4c5307691425d15adf8989896040516020016113149493929190614470565b60405160208183030381529060405280519060200120612466565b858585612480565b9050611342816124ab565b8614611383576040517f08c379a000000000000000000000000000000000000000000000000000000000815260040161137a90614501565b60405180910390fd5b61138d818861228e565b50505050505050565b834211156113d9576040517f08c379a00000000000000000000000000000000000000000000000000000000081526004016113d09061456d565b60405180910390fd5b60007f6e71edae12b1b97f4d1f60370fef10105fa2faae0126114a169c64845d6126c98888886114088c6124ab565b8960405160200161141e9695949392919061458d565b604051602081830303815290604052805190602001209050600061144182612466565b9050600061145182878787612480565b90508973ffffffffffffffffffffffffffffffffffffffff168173ffffffffffffffffffffffffffffffffffffffff16146114c1576040517f08c379a00000000000000000000000000000000000000000000000000000000081526004016114b89061463a565b60405180910390fd5b6114cc8a8a8a611bc4565b50505050505050505050565b6000600160008473ffffffffffffffffffffffffffffffffffffffff1673ffffffffffffffffffffffffffffffffffffffff16815260200190815260200160002060008373ffffffffffffffffffffffffffffffffffffffff1673ffffffffffffffffffffffffffffffffffffffff16815260200190815260200160002054905092915050565b611567613800565b600a60008473ffffffffffffffffffffffffffffffffffffffff1673ffffffffffffffffffffffffffffffffffffffff1681526020019081526020016000208263ffffffff16815481106115be576115bd614343565b5b906000526020600020016040518060400160405290816000820160009054906101000a900463ffffffff1663ffffffff1663ffffffff1681526020016000820160049054906101000a90047bffffffffffffffffffffffffffffffffffffffffffffffffffffffff167bffffffffffffffffffffffffffffffffffffffffffffffffffffffff167bffffffffffffffffffffffffffffffffffffffffffffffffffffffff1681525050905092915050565b600c60009054906101000a900473ffffffffffffffffffffffffffffffffffffffff1673ffffffffffffffffffffffffffffffffffffffff163373ffffffffffffffffffffffffffffffffffffffff16146116ff576040517f08c379a00000000000000000000000000000000000000000000000000000000081526004016116f6906142c0565b60405180910390fd5b600a620186a061170f9190614689565b811161171a57600080fd5b80600e8190555050565b600c60009054906101000a900473ffffffffffffffffffffffffffffffffffffffff1681565b60006020835110156117665761175f83612509565b9050611788565b826117708361178e565b600001908161177f9190614866565b5060ff60001b90505b92915050565b6000819050919050565b600073ffffffffffffffffffffffffffffffffffffffff168273ffffffffffffffffffffffffffffffffffffffff1603611807576040517f08c379a00000000000000000000000000000000000000000000000000000000081526004016117fe90614984565b60405180910390fd5b61181360008383612571565b80600260008282546118259190614142565b92505081905550806000808473ffffffffffffffffffffffffffffffffffffffff1673ffffffffffffffffffffffffffffffffffffffff168152602001908152602001600020600082825401925050819055508173ffffffffffffffffffffffffffffffffffffffff16600073ffffffffffffffffffffffffffffffffffffffff167fddf252ad1be2c89b69c2b068fc378daa952ba7f163c4a11628f55a4df523b3ef836040516118d69190613a0e565b60405180910390a36118ea60008383612911565b5050565b600081836118fc9190614142565b905092915050565b60007bffffffffffffffffffffffffffffffffffffffffffffffffffffffff8016821115611967576040517f08c379a000000000000000000000000000000000000000000000000000000000815260040161195e90614a16565b60405180910390fd5b819050919050565b600063ffffffff80168211156119ba576040517f08c379a00000000000000000000000000000000000000000000000000000000081526004016119b190614aa8565b60405180910390fd5b819050919050565b606060006119d28360000161293c565b905060608190508092505050919050565b60006119f28360000183612998565b60001c905092915050565b6000611a25836000018373ffffffffffffffffffffffffffffffffffffffff1660001b6129c3565b905092915050565b6000611a55836000018373ffffffffffffffffffffffffffffffffffffffff1660001b6129fc565b905092915050565b6000611a85836000018373ffffffffffffffffffffffffffffffffffffffff1660001b612b10565b905092915050565b6000611ab9846000018473ffffffffffffffffffffffffffffffffffffffff1660001b8460001b612b80565b90509392505050565b505050565b600065ffffffffffff8016821115611b14576040517f08c379a0000000000000000000000000000000000000000000000000000000008152600401611b0b90614b3a565b60405180910390fd5b819050919050565b6000611b44836000018373ffffffffffffffffffffffffffffffffffffffff1660001b612bbb565b905092915050565b6000611b5a82600001612bdb565b9050919050565b60008183611b6f91906142e0565b905092915050565b6000611b8683600001836129fc565b905092915050565b6000611b9d8360000183612b10565b905092915050565b6000611bb48360000183612bec565b905092915050565b600033905090565b600073ffffffffffffffffffffffffffffffffffffffff168373ffffffffffffffffffffffffffffffffffffffff1603611c33576040517f08c379a0000000000000000000000000000000000000000000000000000000008152600401611c2a90614bcc565b60405180910390fd5b600073ffffffffffffffffffffffffffffffffffffffff168273ffffffffffffffffffffffffffffffffffffffff1603611ca2576040517f08c379a0000000000000000000000000000000000000000000000000000000008152600401611c9990614c5e565b60405180910390fd5b80600160008573ffffffffffffffffffffffffffffffffffffffff1673ffffffffffffffffffffffffffffffffffffffff16815260200190815260200160002060008473ffffffffffffffffffffffffffffffffffffffff1673ffffffffffffffffffffffffffffffffffffffff168152602001908152602001600020819055508173ffffffffffffffffffffffffffffffffffffffff168373ffffffffffffffffffffffffffffffffffffffff167f8c5be1e5ebec7d5bd14f71427d1e84f3dd0314c0f7b2291e5b200ac8c7c3b92583604051611d809190613a0e565b60405180910390a3505050565b6000611d9984846114d8565b90507fffffffffffffffffffffffffffffffffffffffffffffffffffffffffffffffff8114611e135781811015611e05576040517f08c379a0000000000000000000000000000000000000000000000000000000008152600401611dfc90614cca565b60405180910390fd5b611e128484848403611bc4565b5b50505050565b600073ffffffffffffffffffffffffffffffffffffffff168373ffffffffffffffffffffffffffffffffffffffff1603611e88576040517f08c379a0000000000000000000000000000000000000000000000000000000008152600401611e7f90614d5c565b60405180910390fd5b600073ffffffffffffffffffffffffffffffffffffffff168273ffffffffffffffffffffffffffffffffffffffff1603611ef7576040517f08c379a0000000000000000000000000000000000000000000000000000000008152600401611eee90614dee565b60405180910390fd5b611f02838383612571565b60008060008573ffffffffffffffffffffffffffffffffffffffff1673ffffffffffffffffffffffffffffffffffffffff16815260200190815260200160002054905081811015611f88576040517f08c379a0000000000000000000000000000000000000000000000000000000008152600401611f7f90614e80565b60405180910390fd5b8181036000808673ffffffffffffffffffffffffffffffffffffffff1673ffffffffffffffffffffffffffffffffffffffff16815260200190815260200160002081905550816000808573ffffffffffffffffffffffffffffffffffffffff1673ffffffffffffffffffffffffffffffffffffffff168152602001908152602001600020600082825401925050819055508273ffffffffffffffffffffffffffffffffffffffff168473ffffffffffffffffffffffffffffffffffffffff167fddf252ad1be2c89b69c2b068fc378daa952ba7f163c4a11628f55a4df523b3ef846040516120769190613a0e565b60405180910390a3612089848484612911565b50505050565b60007f000000000000000000000000000000000000000000000000000000000000000073ffffffffffffffffffffffffffffffffffffffff163073ffffffffffffffffffffffffffffffffffffffff1614801561210b57507f000000000000000000000000000000000000000000000000000000000000000046145b15612138577f00000000000000000000000000000000000000000000000000000000000000009050612143565b612140612c0f565b90505b90565b6000808380549050905060008082905060058311156121bc57600061216a84612ca5565b8461217591906142e0565b9050856121828883612d9e565b60000160009054906101000a900463ffffffff1663ffffffff1611156121aa578091506121ba565b6001816121b79190614142565b92505b505b5b8082101561221c5760006121d18383612db3565b9050856121de8883612d9e565b60000160009054906101000a900463ffffffff1663ffffffff16111561220657809150612216565b6001816122139190614142565b92505b506121bd565b60008114612262576122318660018303612d9e565b60000160049054906101000a90047bffffffffffffffffffffffffffffffffffffffffffffffffffffffff16612265565b60005b7bffffffffffffffffffffffffffffffffffffffffffffffffffffffff16935050505092915050565b600061229983610bd6565b905060006122a684610ca7565b905082600960008673ffffffffffffffffffffffffffffffffffffffff1673ffffffffffffffffffffffffffffffffffffffff16815260200190815260200160002060006101000a81548173ffffffffffffffffffffffffffffffffffffffff021916908373ffffffffffffffffffffffffffffffffffffffff1602179055508273ffffffffffffffffffffffffffffffffffffffff168273ffffffffffffffffffffffffffffffffffffffff168573ffffffffffffffffffffffffffffffffffffffff167f3134e8a2e6d97e929a7e54011ea5485d7d196dd5f0ba4d4ef95803e8e3fc257f60405160405180910390a46123a2828483612dd9565b50505050565b600081600001549050919050565b606060ff60001b83146123d3576123cc83612fd2565b9050612460565b8180546123df90614050565b80601f016020809104026020016040519081016040528092919081815260200182805461240b90614050565b80156124585780601f1061242d57610100808354040283529160200191612458565b820191906000526020600020905b81548152906001019060200180831161243b57829003601f168201915b505050505090505b92915050565b600061247961247361208f565b83613046565b9050919050565b600080600061249187878787613087565b9150915061249e81613169565b8192505050949350505050565b600080600760008473ffffffffffffffffffffffffffffffffffffffff1673ffffffffffffffffffffffffffffffffffffffff16815260200190815260200160002090506124f8816123a8565b9150612503816132cf565b50919050565b600080829050601f8151111561255657826040517f305a27a900000000000000000000000000000000000000000000000000000000815260040161254d91906138ce565b60405180910390fd5b80518161256290614ed0565b60001c1760001b915050919050565b6000600f60008573ffffffffffffffffffffffffffffffffffffffff1673ffffffffffffffffffffffffffffffffffffffff1681526020019081526020016000205490506000600f60008573ffffffffffffffffffffffffffffffffffffffff1673ffffffffffffffffffffffffffffffffffffffff168152602001908152602001600020549050428210801561260757504281105b1561269457600061261860166119c2565b905060005b815181101561269157600061263c8260166119e390919063ffffffff16565b90506126528160106119fd90919063ffffffff16565b506126678160136119fd90919063ffffffff16565b5061267c816016611a2d90919063ffffffff16565b5050808061268990614f37565b91505061261d565b50505b60008211156127cf576126b1846016611a5d90919063ffffffff16565b506126c884846010611a8d9092919063ffffffff16565b504282101561271a5742600f60008773ffffffffffffffffffffffffffffffffffffffff1673ffffffffffffffffffffffffffffffffffffffff1681526020019081526020016000208190555061278d565b4282036127765760014261272e9190614142565b600f60008773ffffffffffffffffffffffffffffffffffffffff1673ffffffffffffffffffffffffffffffffffffffff1681526020019081526020016000208190555061278c565b61278b6127846013866132e5565b858561333a565b5b5b83601860006101000a81548173ffffffffffffffffffffffffffffffffffffffff021916908373ffffffffffffffffffffffffffffffffffffffff1602179055505b600081111561290a576127ec856016611a5d90919063ffffffff16565b5061280385846013611a8d9092919063ffffffff16565b50428110156128555742600f60008673ffffffffffffffffffffffffffffffffffffffff1673ffffffffffffffffffffffffffffffffffffffff168152602001908152602001600020819055506128c8565b4281036128b1576001426128699190614142565b600f60008673ffffffffffffffffffffffffffffffffffffffff1673ffffffffffffffffffffffffffffffffffffffff168152602001908152602001600020819055506128c7565b6128c66128bf6010876132e5565b868561333a565b5b5b84601960006101000a81548173ffffffffffffffffffffffffffffffffffffffff021916908373ffffffffffffffffffffffffffffffffffffffff1602179055505b5050505050565b61291c838383611ac2565b61293761292884610bd6565b61293184610bd6565b83612dd9565b505050565b60608160000180548060200260200160405190810160405280929190818152602001828054801561298c57602002820191906000526020600020905b815481526020019060010190808311612978575b50505050509050919050565b60008260000182815481106129b0576129af614343565b5b9060005260206000200154905092915050565b6000826002016000838152602001908152602001600020600090556129f48284600001611b7790919063ffffffff16565b905092915050565b60008083600101600084815260200190815260200160002054905060008114612b04576000600182612a2e91906142e0565b9050600060018660000180549050612a4691906142e0565b9050818114612ab5576000866000018281548110612a6757612a66614343565b5b9060005260206000200154905080876000018481548110612a8b57612a8a614343565b5b90600052602060002001819055508387600101600083815260200190815260200160002081905550505b85600001805480612ac957612ac8614f7f565b5b600190038181906000526020600020016000905590558560010160008681526020019081526020016000206000905560019350505050612b0a565b60009150505b92915050565b6000612b1c8383612bec565b612b75578260000182908060018154018082558091505060019003906000526020600020016000909190919091505582600001805490508360010160008481526020019081526020016000208190555060019050612b7a565b600090505b92915050565b60008184600201600085815260200190815260200160002081905550612bb28385600001611b8e90919063ffffffff16565b90509392505050565b6000612bd38284600001611ba590919063ffffffff16565b905092915050565b600081600001805490509050919050565b600080836001016000848152602001908152602001600020541415905092915050565b60007f8b73c3c69bb8fe3d512ecc4cf759cc79239f7b179b0ffacaa9a75d522b39400f7f00000000000000000000000000000000000000000000000000000000000000007f00000000000000000000000000000000000000000000000000000000000000004630604051602001612c8a959493929190614fae565b60405160208183030381529060405280519060200120905090565b6000808203612cb75760009050612d99565b60006001612cc4846133db565b901c6001901b90506001818481612cde57612cdd61465a565b5b048201901c90506001818481612cf757612cf661465a565b5b048201901c90506001818481612d1057612d0f61465a565b5b048201901c90506001818481612d2957612d2861465a565b5b048201901c90506001818481612d4257612d4161465a565b5b048201901c90506001818481612d5b57612d5a61465a565b5b048201901c90506001818481612d7457612d7361465a565b5b048201901c9050612d9581828581612d8f57612d8e61465a565b5b046134bc565b9150505b919050565b60008260005281602060002001905092915050565b60006002828418612dc49190614689565b828416612dd19190614142565b905092915050565b8173ffffffffffffffffffffffffffffffffffffffff168373ffffffffffffffffffffffffffffffffffffffff1614158015612e155750600081115b15612fcd57600073ffffffffffffffffffffffffffffffffffffffff168373ffffffffffffffffffffffffffffffffffffffff1614612ef357600080612e9c600a60008773ffffffffffffffffffffffffffffffffffffffff1673ffffffffffffffffffffffffffffffffffffffff168152602001908152602001600020611b61856134d5565b915091508473ffffffffffffffffffffffffffffffffffffffff167fdec2bacdd2f05b59de34da9b523dff8be42e5e38e818c82fdb0bae774387a7248383604051612ee8929190615001565b60405180910390a250505b600073ffffffffffffffffffffffffffffffffffffffff168273ffffffffffffffffffffffffffffffffffffffff1614612fcc57600080612f75600a60008673ffffffffffffffffffffffffffffffffffffffff1673ffffffffffffffffffffffffffffffffffffffff1681526020019081526020016000206118ee856134d5565b915091508373ffffffffffffffffffffffffffffffffffffffff167fdec2bacdd2f05b59de34da9b523dff8be42e5e38e818c82fdb0bae774387a7248383604051612fc1929190615001565b60405180910390a250505b5b505050565b60606000612fdf836137b0565b90506000602067ffffffffffffffff811115612ffe57612ffd614314565b5b6040519080825280601f01601f1916602001820160405280156130305781602001600182028036833780820191505090505b5090508181528360208201528092505050919050565b60006040517f190100000000000000000000000000000000000000000000000000000000000081528360028201528260228201526042812091505092915050565b6000807f7fffffffffffffffffffffffffffffff5d576e7357a4501ddfe92f46681b20a08360001c11156130c2576000600391509150613160565b6000600187878787604051600081526020016040526040516130e7949392919061502a565b6020604051602081039080840390855afa158015613109573d6000803e3d6000fd5b505050602060405103519050600073ffffffffffffffffffffffffffffffffffffffff168173ffffffffffffffffffffffffffffffffffffffff160361315757600060019250925050613160565b80600092509250505b94509492505050565b6000600481111561317d5761317c61506f565b5b8160048111156131905761318f61506f565b5b03156132cc57600160048111156131aa576131a961506f565b5b8160048111156131bd576131bc61506f565b5b036131fd576040517f08c379a00000000000000000000000000000000000000000000000000000000081526004016131f4906150ea565b60405180910390fd5b600260048111156132115761321061506f565b5b8160048111156132245761322361506f565b5b03613264576040517f08c379a000000000000000000000000000000000000000000000000000000000815260040161325b90615156565b60405180910390fd5b600360048111156132785761327761506f565b5b81600481111561328b5761328a61506f565b5b036132cb576040517f08c379a00000000000000000000000000000000000000000000000000000000081526004016132c2906151e8565b60405180910390fd5b5b50565b6001816000016000828254019250508190555050565b60006132fa8284611b1c90919063ffffffff16565b1561332f57613328600161330e6016611b4c565b61331891906142e0565b60166119e390919063ffffffff16565b9050613334565b600090505b92915050565b600073ffffffffffffffffffffffffffffffffffffffff168373ffffffffffffffffffffffffffffffffffffffff1603156133d6578173ffffffffffffffffffffffffffffffffffffffff168373ffffffffffffffffffffffffffffffffffffffff1603156133d6576133d582846064620186a0600e54866133bc9190615208565b6133c69190614689565b6133d09190614689565b611e19565b5b505050565b600080600090506000608084901c11156133fd57608083901c92506080810190505b6000604084901c111561341857604083901c92506040810190505b6000602084901c111561343357602083901c92506020810190505b6000601084901c111561344e57601083901c92506010810190505b6000600884901c111561346957600883901c92506008810190505b6000600484901c111561348457600483901c92506004810190505b6000600284901c111561349f57600283901c92506002810190505b6000600184901c11156134b3576001810190505b80915050919050565b60008183106134cb57816134cd565b825b905092915050565b600080600085805490509050600080821461359b576134f78760018403612d9e565b6040518060400160405290816000820160009054906101000a900463ffffffff1663ffffffff1663ffffffff1681526020016000820160049054906101000a90047bffffffffffffffffffffffffffffffffffffffffffffffffffffffff167bffffffffffffffffffffffffffffffffffffffffffffffffffffffff167bffffffffffffffffffffffffffffffffffffffffffffffffffffffff16815250506135d7565b6040518060400160405280600063ffffffff16815260200160007bffffffffffffffffffffffffffffffffffffffffffffffffffffffff168152505b905080602001517bffffffffffffffffffffffffffffffffffffffffffffffffffffffff16935061360c84868863ffffffff16565b9250600082118015613636575061362161104e565b65ffffffffffff16816000015163ffffffff16145b156136a75761364483611904565b6136518860018503612d9e565b60000160046101000a8154817bffffffffffffffffffffffffffffffffffffffffffffffffffffffff02191690837bffffffffffffffffffffffffffffffffffffffffffffffffffffffff1602179055506137a6565b8660405180604001604052806136cb6136be61104e565b65ffffffffffff1661196f565b63ffffffff1681526020016136df86611904565b7bffffffffffffffffffffffffffffffffffffffffffffffffffffffff168152509080600181540180825580915050600190039060005260206000200160009091909190915060008201518160000160006101000a81548163ffffffff021916908363ffffffff16021790555060208201518160000160046101000a8154817bffffffffffffffffffffffffffffffffffffffffffffffffffffffff02191690837bffffffffffffffffffffffffffffffffffffffffffffffffffffffff16021790555050505b5050935093915050565b60008060ff8360001c169050601f8111156137f7576040517fb3512b0c00000000000000000000000000000000000000000000000000000000815260040160405180910390fd5b80915050919050565b6040518060400160405280600063ffffffff16815260200160007bffffffffffffffffffffffffffffffffffffffffffffffffffffffff1681525090565b600081519050919050565b600082825260208201905092915050565b60005b8381101561387857808201518184015260208101905061385d565b60008484015250505050565b6000601f19601f8301169050919050565b60006138a08261383e565b6138aa8185613849565b93506138ba81856020860161385a565b6138c381613884565b840191505092915050565b600060208201905081810360008301526138e88184613895565b905092915050565b600080fd5b600073ffffffffffffffffffffffffffffffffffffffff82169050919050565b6000613920826138f5565b9050919050565b61393081613915565b811461393b57600080fd5b50565b60008135905061394d81613927565b92915050565b6000819050919050565b61396681613953565b811461397157600080fd5b50565b6000813590506139838161395d565b92915050565b600080604083850312156139a05761399f6138f0565b5b60006139ae8582860161393e565b92505060206139bf85828601613974565b9150509250929050565b60008115159050919050565b6139de816139c9565b82525050565b60006020820190506139f960008301846139d5565b92915050565b613a0881613953565b82525050565b6000602082019050613a2360008301846139ff565b92915050565b600080600060608486031215613a4257613a416138f0565b5b6000613a508682870161393e565b9350506020613a618682870161393e565b9250506040613a7286828701613974565b9150509250925092565b613a8581613915565b82525050565b6000602082019050613aa06000830184613a7c565b92915050565b600060ff82169050919050565b613abc81613aa6565b82525050565b6000602082019050613ad76000830184613ab3565b92915050565b6000819050919050565b613af081613add565b82525050565b6000602082019050613b0b6000830184613ae7565b92915050565b600060208284031215613b2757613b266138f0565b5b6000613b358482850161393e565b91505092915050565b600063ffffffff82169050919050565b613b5781613b3e565b82525050565b6000602082019050613b726000830184613b4e565b92915050565b60007fff0000000000000000000000000000000000000000000000000000000000000082169050919050565b613bad81613b78565b82525050565b600081519050919050565b600082825260208201905092915050565b6000819050602082019050919050565b613be881613953565b82525050565b6000613bfa8383613bdf565b60208301905092915050565b6000602082019050919050565b6000613c1e82613bb3565b613c288185613bbe565b9350613c3383613bcf565b8060005b83811015613c64578151613c4b8882613bee565b9750613c5683613c06565b925050600181019050613c37565b5085935050505092915050565b600060e082019050613c86600083018a613ba4565b8181036020830152613c988189613895565b90508181036040830152613cac8188613895565b9050613cbb60608301876139ff565b613cc86080830186613a7c565b613cd560a0830185613ae7565b81810360c0830152613ce78184613c13565b905098975050505050505050565b600060208284031215613d0b57613d0a6138f0565b5b6000613d1984828501613974565b91505092915050565b600065ffffffffffff82169050919050565b613d3d81613d22565b82525050565b6000602082019050613d586000830184613d34565b92915050565b613d6781613aa6565b8114613d7257600080fd5b50565b600081359050613d8481613d5e565b92915050565b613d9381613add565b8114613d9e57600080fd5b50565b600081359050613db081613d8a565b92915050565b60008060008060008060c08789031215613dd357613dd26138f0565b5b6000613de189828a0161393e565b9650506020613df289828a01613974565b9550506040613e0389828a01613974565b9450506060613e1489828a01613d75565b9350506080613e2589828a01613da1565b92505060a0613e3689828a01613da1565b9150509295509295509295565b600080600080600080600060e0888a031215613e6257613e616138f0565b5b6000613e708a828b0161393e565b9750506020613e818a828b0161393e565b9650506040613e928a828b01613974565b9550506060613ea38a828b01613974565b9450506080613eb48a828b01613d75565b93505060a0613ec58a828b01613da1565b92505060c0613ed68a828b01613da1565b91505092959891949750929550565b60008060408385031215613efc57613efb6138f0565b5b6000613f0a8582860161393e565b9250506020613f1b8582860161393e565b9150509250929050565b613f2e81613b3e565b8114613f3957600080fd5b50565b600081359050613f4b81613f25565b92915050565b60008060408385031215613f6857613f676138f0565b5b6000613f768582860161393e565b9250506020613f8785828601613f3c565b9150509250929050565b613f9a81613b3e565b82525050565b60007bffffffffffffffffffffffffffffffffffffffffffffffffffffffff82169050919050565b613fd181613fa0565b82525050565b604082016000820151613fed6000850182613f91565b5060208201516140006020850182613fc8565b50505050565b600060408201905061401b6000830184613fd7565b92915050565b7f4e487b7100000000000000000000000000000000000000000000000000000000600052602260045260246000fd5b6000600282049050600182168061406857607f821691505b60208210810361407b5761407a614021565b5b50919050565b7f4f6e6c79207468652070656e64696e672061646d696e6973747261746f72206d60008201527f61792063616c6c20746869732066756e6374696f6e2e00000000000000000000602082015250565b60006140dd603683613849565b91506140e882614081565b604082019050919050565b6000602082019050818103600083015261410c816140d0565b9050919050565b7f4e487b7100000000000000000000000000000000000000000000000000000000600052601160045260246000fd5b600061414d82613953565b915061415883613953565b92508282019050808211156141705761416f614113565b5b92915050565b7f4552433230566f7465733a20667574757265206c6f6f6b757000000000000000600082015250565b60006141ac601983613849565b91506141b782614176565b602082019050919050565b600060208201905081810360008301526141db8161419f565b9050919050565b7f4552433230566f7465733a2062726f6b656e20636c6f636b206d6f6465000000600082015250565b6000614218601d83613849565b9150614223826141e2565b602082019050919050565b600060208201905081810360008301526142478161420b565b9050919050565b7f4f6e6c79207468652061646d696e6973747261746f72206d61792063616c6c2060008201527f746869732066756e6374696f6e2e000000000000000000000000000000000000602082015250565b60006142aa602e83613849565b91506142b58261424e565b604082019050919050565b600060208201905081810360008301526142d98161429d565b9050919050565b60006142eb82613953565b91506142f683613953565b925082820390508181111561430e5761430d614113565b5b92915050565b7f4e487b7100000000000000000000000000000000000000000000000000000000600052604160045260246000fd5b7f4e487b7100000000000000000000000000000000000000000000000000000000600052603260045260246000fd5b7f45524332303a2064656372656173656420616c6c6f77616e63652062656c6f7760008201527f207a65726f000000000000000000000000000000000000000000000000000000602082015250565b60006143ce602583613849565b91506143d982614372565b604082019050919050565b600060208201905081810360008301526143fd816143c1565b9050919050565b7f4552433230566f7465733a207369676e61747572652065787069726564000000600082015250565b600061443a601d83613849565b915061444582614404565b602082019050919050565b600060208201905081810360008301526144698161442d565b9050919050565b60006080820190506144856000830187613ae7565b6144926020830186613a7c565b61449f60408301856139ff565b6144ac60608301846139ff565b95945050505050565b7f4552433230566f7465733a20696e76616c6964206e6f6e636500000000000000600082015250565b60006144eb601983613849565b91506144f6826144b5565b602082019050919050565b6000602082019050818103600083015261451a816144de565b9050919050565b7f45524332305065726d69743a206578706972656420646561646c696e65000000600082015250565b6000614557601d83613849565b915061456282614521565b602082019050919050565b600060208201905081810360008301526145868161454a565b9050919050565b600060c0820190506145a26000830189613ae7565b6145af6020830188613a7c565b6145bc6040830187613a7c565b6145c960608301866139ff565b6145d660808301856139ff565b6145e360a08301846139ff565b979650505050505050565b7f45524332305065726d69743a20696e76616c6964207369676e61747572650000600082015250565b6000614624601e83613849565b915061462f826145ee565b602082019050919050565b6000602082019050818103600083015261465381614617565b9050919050565b7f4e487b7100000000000000000000000000000000000000000000000000000000600052601260045260246000fd5b600061469482613953565b915061469f83613953565b9250826146af576146ae61465a565b5b828204905092915050565b60008190508160005260206000209050919050565b60006020601f8301049050919050565b600082821b905092915050565b60006008830261471c7fffffffffffffffffffffffffffffffffffffffffffffffffffffffffffffffff826146df565b61472686836146df565b95508019841693508086168417925050509392505050565b6000819050919050565b600061476361475e61475984613953565b61473e565b613953565b9050919050565b6000819050919050565b61477d83614748565b6147916147898261476a565b8484546146ec565b825550505050565b600090565b6147a6614799565b6147b1818484614774565b505050565b5b818110156147d5576147ca60008261479e565b6001810190506147b7565b5050565b601f82111561481a576147eb816146ba565b6147f4846146cf565b81016020851015614803578190505b61481761480f856146cf565b8301826147b6565b50505b505050565b600082821c905092915050565b600061483d6000198460080261481f565b1980831691505092915050565b6000614856838361482c565b9150826002028217905092915050565b61486f8261383e565b67ffffffffffffffff81111561488857614887614314565b5b6148928254614050565b61489d8282856147d9565b600060209050601f8311600181146148d057600084156148be578287015190505b6148c8858261484a565b865550614930565b601f1984166148de866146ba565b60005b82811015614906578489015182556001820191506020850194506020810190506148e1565b86831015614923578489015161491f601f89168261482c565b8355505b6001600288020188555050505b505050505050565b7f45524332303a206d696e7420746f20746865207a65726f206164647265737300600082015250565b600061496e601f83613849565b915061497982614938565b602082019050919050565b6000602082019050818103600083015261499d81614961565b9050919050565b7f53616665436173743a2076616c756520646f65736e27742066697420696e203260008201527f3234206269747300000000000000000000000000000000000000000000000000602082015250565b6000614a00602783613849565b9150614a0b826149a4565b604082019050919050565b60006020820190508181036000830152614a2f816149f3565b9050919050565b7f53616665436173743a2076616c756520646f65736e27742066697420696e203360008201527f3220626974730000000000000000000000000000000000000000000000000000602082015250565b6000614a92602683613849565b9150614a9d82614a36565b604082019050919050565b60006020820190508181036000830152614ac181614a85565b9050919050565b7f53616665436173743a2076616c756520646f65736e27742066697420696e203460008201527f3820626974730000000000000000000000000000000000000000000000000000602082015250565b6000614b24602683613849565b9150614b2f82614ac8565b604082019050919050565b60006020820190508181036000830152614b5381614b17565b9050919050565b7f45524332303a20617070726f76652066726f6d20746865207a65726f2061646460008201527f7265737300000000000000000000000000000000000000000000000000000000602082015250565b6000614bb6602483613849565b9150614bc182614b5a565b604082019050919050565b60006020820190508181036000830152614be581614ba9565b9050919050565b7f45524332303a20617070726f766520746f20746865207a65726f20616464726560008201527f7373000000000000000000000000000000000000000000000000000000000000602082015250565b6000614c48602283613849565b9150614c5382614bec565b604082019050919050565b60006020820190508181036000830152614c7781614c3b565b9050919050565b7f45524332303a20696e73756666696369656e7420616c6c6f77616e6365000000600082015250565b6000614cb4601d83613849565b9150614cbf82614c7e565b602082019050919050565b60006020820190508181036000830152614ce381614ca7565b9050919050565b7f45524332303a207472616e736665722066726f6d20746865207a65726f20616460008201527f6472657373000000000000000000000000000000000000000000000000000000602082015250565b6000614d46602583613849565b9150614d5182614cea565b604082019050919050565b60006020820190508181036000830152614d7581614d39565b9050919050565b7f45524332303a207472616e7366657220746f20746865207a65726f206164647260008201527f6573730000000000000000000000000000000000000000000000000000000000602082015250565b6000614dd8602383613849565b9150614de382614d7c565b604082019050919050565b60006020820190508181036000830152614e0781614dcb565b9050919050565b7f45524332303a207472616e7366657220616d6f756e742065786365656473206260008201527f616c616e63650000000000000000000000000000000000000000000000000000602082015250565b6000614e6a602683613849565b9150614e7582614e0e565b604082019050919050565b60006020820190508181036000830152614e9981614e5d565b9050919050565b600081519050919050565b6000819050602082019050919050565b6000614ec78251613add565b80915050919050565b6000614edb82614ea0565b82614ee584614eab565b9050614ef081614ebb565b92506020821015614f3057614f2b7fffffffffffffffffffffffffffffffffffffffffffffffffffffffffffffffff836020036008026146df565b831692505b5050919050565b6000614f4282613953565b91507fffffffffffffffffffffffffffffffffffffffffffffffffffffffffffffffff8203614f7457614f73614113565b5b600182019050919050565b7f4e487b7100000000000000000000000000000000000000000000000000000000600052603160045260246000fd5b600060a082019050614fc36000830188613ae7565b614fd06020830187613ae7565b614fdd6040830186613ae7565b614fea60608301856139ff565b614ff76080830184613a7c565b9695505050505050565b600060408201905061501660008301856139ff565b61502360208301846139ff565b9392505050565b600060808201905061503f6000830187613ae7565b61504c6020830186613ab3565b6150596040830185613ae7565b6150666060830184613ae7565b95945050505050565b7f4e487b7100000000000000000000000000000000000000000000000000000000600052602160045260246000fd5b7f45434453413a20696e76616c6964207369676e61747572650000000000000000600082015250565b60006150d4601883613849565b91506150df8261509e565b602082019050919050565b60006020820190508181036000830152615103816150c7565b9050919050565b7f45434453413a20696e76616c6964207369676e6174757265206c656e67746800600082015250565b6000615140601f83613849565b915061514b8261510a565b602082019050919050565b6000602082019050818103600083015261516f81615133565b9050919050565b7f45434453413a20696e76616c6964207369676e6174757265202773272076616c60008201527f7565000000000000000000000000000000000000000000000000000000000000602082015250565b60006151d2602283613849565b91506151dd82615176565b604082019050919050565b60006020820190508181036000830152615201816151c5565b9050919050565b600061521382613953565b915061521e83613953565b925082820261522c81613953565b9150828204841483151761524357615242614113565b5b509291505056fea264697066735822122098450b5053acd7c074805052fe9af92fa2feda9f7683faeeb97c4b6a7bea50ba64736f6c63430008120033",
  "immutableReferences": {
    "2792": [
      {
        "length": 32,
        "start": 8466
      }
    ],
    "2794": [
      {
        "length": 32,
        "start": 8425
      }
    ],
    "2796": [
      {
        "length": 32,
        "start": 8339
      }
    ],
    "2798": [
      {
        "length": 32,
        "start": 11316
      }
    ],
    "2800": [
      {
        "length": 32,
        "start": 11349
      }
    ],
    "2803": [
      {
        "length": 32,
        "start": 3622
      }
    ],
    "2806": [
      {
        "length": 32,
        "start": 3674
      }
    ]
  },
  "source": "// SPDX-License-Identifier: MIT License\npragma solidity 0.8.18;\n\nimport \"@openzeppelin/contracts/utils/structs/EnumerableMap.sol\";\nimport \"@openzeppelin/contracts/utils/structs/EnumerableSet.sol\";\nimport \"@openzeppelin/contracts/token/ERC20/extensions/ERC20Votes.sol\";\n\n/**\n@title RobinHoo Coin\n\nBased on Inedible Coin\nhttps://www.inediblecoin.com/\n0x3486b751a36f731a1bebff779374bad635864919\n\nThe difference is that RobinHoo **allows** sandwich attack BUT it tries to punish the bot - taking\na small fee from it's balance and giving it back to the victim.\nIn case it can't, sandwiching transactions will revert.\nNote: it also handles the situation with multiple sandwiching transaction AND multiple attempts per block.\nBOT : B\nVICTIM : V\nBUY/SELL : B/S\n\nSimple case:\n- B B\n- V B\n- B S\n\nMultiple wraps:\n- B1 B\n- B2 B\n- V B\n- B2 S\n- B1 S\n\nMultiple attempts:\n- B1 B\n- V B\n- B1 S\n- B2 B\n- V2 B\n- B2 S\n**/\n\ncontract RobinHoo is ERC20Votes {\n\n    using EnumerableMap for EnumerableMap.AddressToUintMap;\n    using EnumerableSet for EnumerableSet.AddressSet;\n\n    uint256 constant PRECISION = 10**5;\n\n    // Only privilege admin has is to add more dexes.\n    // The centralization here shouldn't cause any problem.\n    address public admin;\n    address public pendingAdmin;\n    uint256 public punishmentFee;\n\n    // Dexes that you want to limit interaction with.\n    mapping(address => uint256) private dexSwaps;\n    // actor => amount\n    EnumerableMap.AddressToUintMap private toDexTrades;\n    EnumerableMap.AddressToUintMap private fromDexTrades;\n    EnumerableSet.AddressSet private blockActors;\n    address private lastActorToDex;\n    address private lastActorFromDex;\n\n    constructor()\n    ERC20(\"RobinHoo Coin\", \"ROBINHOO\")\n    ERC20Permit(\"RobinHoo Coin\")\n    {\n        _mint(msg.sender, 888_888_888_888_888 ether);\n        admin = msg.sender;\n        punishmentFee = 1 * PRECISION;\n    }\n    modifier onlyAdmin {\n        require(msg.sender == admin, \"Only the administrator may call this function.\");\n        _;\n    }\n\n    /**\n     * @dev On every trading transaction starting from the 3rd, will check if there was an opposite 2nd tx (and 1st was the same direction)\n     * and will try to forcibly take some amount back to the victim\n     * @param _to Address that the funds are being sent to.\n     * @param _from Address that the funds are being sent from.\n     * @param _amount Trading amount\n    **/\n    function _beforeTokenTransfer(address _to, address _from, uint256 _amount)\n    internal\n    override\n    {\n        uint256 toSwap = dexSwaps[_to];\n        uint256 fromSwap = dexSwaps[_from];\n\n        if (toSwap < block.timestamp && fromSwap < block.timestamp) {   //clean up on new block\n            address[] memory values = blockActors.values();\n            for (uint256 i = 0; i < values.length; i++) {\n                address _actor = blockActors.at(i);\n                toDexTrades.remove(_actor);\n                fromDexTrades.remove(_actor);\n                blockActors.remove(_actor);\n            }\n        }\n\n        if (toSwap > 0) {\n            blockActors.add(_from);\n            toDexTrades.set(_from, _amount);\n            if (toSwap < block.timestamp) {             // No interactions have occurred this block.\n                dexSwaps[_to] = block.timestamp;\n            } else if (toSwap == block.timestamp) {     // 1 interaction has occurred this block.\n                dexSwaps[_to] = block.timestamp + 1;\n            } else {                                    // 3+\n                _punishOrFail(_findVictimIfBot(fromDexTrades, _from), _from, _amount);\n            }\n            lastActorToDex = _from;\n        }\n\n        if (fromSwap > 0) {\n            blockActors.add(_to);\n            fromDexTrades.set(_to, _amount);\n            if (fromSwap < block.timestamp) {\n                dexSwaps[_from] = block.timestamp;\n            } else if (fromSwap == block.timestamp) {\n                dexSwaps[_from] = block.timestamp + 1;\n            } else {\n                _punishOrFail(_findVictimIfBot(toDexTrades, _to), _to, _amount);\n            }\n            lastActorFromDex = _to;\n        }\n    }\n\n    //TODO\n    function _findVictimIfBot(EnumerableMap.AddressToUintMap storage _oppositeTrades, address _actor) internal view returns (address) {\n        if (_oppositeTrades.contains(_actor)) {\n            return blockActors.at(blockActors.length() - 1);    //last unique\n        }\n        return address(0);\n    }\n\n    function _punishOrFail(address _victim, address _badGuy, uint256 _amount)\n    internal\n    {\n        if (_victim == address(0)) return;  //no one hurt for this 3+ tx\n        if (_victim == _badGuy) return;     //opposite trades by same actor\n        _transfer(_badGuy, _victim, _amount * punishmentFee / PRECISION / 100);\n\n    }\n\n    /**\n     * @dev Turn a new dex address either on or off\n     * @param _newDex The address of the dex.\n    **/\n    function toggleDex(address _newDex)\n    external\n    onlyAdmin\n    {\n        if (dexSwaps[_newDex] > 0) dexSwaps[_newDex] = 0;\n        else dexSwaps[_newDex] = block.timestamp - 1;\n    }\n\n    /**\n     * @dev How much of the bot's trade to take back\n     * @param _newFee 1% = 1 * 10^5\n    **/\n    function setPunishmentFee(uint _newFee)\n    external\n    onlyAdmin\n    {\n        require(_newFee > PRECISION / 10);\n        punishmentFee = _newFee;\n    }\n\n    /**\n     * @dev Make a new admin pending. I hate 1-step ownership transfers. They terrify me.\n     * @param _newAdmin The new address to transfer to.\n    **/\n    function transferAdmin(address _newAdmin)\n    external\n    onlyAdmin\n    {\n        pendingAdmin = _newAdmin;\n    }\n\n    /**\n     * @dev Renounce admin if no one should have it anymore.\n    **/\n    function renounceAdmin()\n    external\n    onlyAdmin\n    {\n        admin = address(0);\n    }\n\n    /**\n     * @dev Accept administrator from the pending address.\n    **/\n    function acceptAdmin()\n    external\n    {\n        require(msg.sender == pendingAdmin, \"Only the pending administrator may call this function.\");\n        admin = pendingAdmin;\n        delete pendingAdmin;\n    }\n\n}\n",
  "sourcePath": "/Users/kirilivanov/DEV/superInedible/contracts/RobinHoo.sol",
  "compiler": {
    "name": "solc",
    "version": "0.8.18+commit.87f61d96.Emscripten.clang"
  },
  "schemaVersion": "3.4.14",
  "updatedAt": "2023-07-01T10:29:15.015Z",
  "devdoc": {
    "events": {
      "Approval(address,address,uint256)": {
        "details": "Emitted when the allowance of a `spender` for an `owner` is set by a call to {approve}. `value` is the new allowance."
      },
      "DelegateChanged(address,address,address)": {
        "details": "Emitted when an account changes their delegate."
      },
      "DelegateVotesChanged(address,uint256,uint256)": {
        "details": "Emitted when a token transfer or delegate change results in changes to a delegate's number of votes."
      },
      "EIP712DomainChanged()": {
        "details": "MAY be emitted to signal that the domain could have changed."
      },
      "Transfer(address,address,uint256)": {
        "details": "Emitted when `value` tokens are moved from one account (`from`) to another (`to`). Note that `value` may be zero."
      }
    },
    "kind": "dev",
    "methods": {
      "CLOCK_MODE()": {
        "details": "Description of the clock"
      },
      "DOMAIN_SEPARATOR()": {
        "details": "See {IERC20Permit-DOMAIN_SEPARATOR}."
      },
      "acceptAdmin()": {
        "details": "Accept administrator from the pending address.*"
      },
      "allowance(address,address)": {
        "details": "See {IERC20-allowance}."
      },
      "approve(address,uint256)": {
        "details": "See {IERC20-approve}. NOTE: If `amount` is the maximum `uint256`, the allowance is not updated on `transferFrom`. This is semantically equivalent to an infinite approval. Requirements: - `spender` cannot be the zero address."
      },
      "balanceOf(address)": {
        "details": "See {IERC20-balanceOf}."
      },
      "checkpoints(address,uint32)": {
        "details": "Get the `pos`-th checkpoint for `account`."
      },
      "clock()": {
        "details": "Clock used for flagging checkpoints. Can be overridden to implement timestamp based checkpoints (and voting)."
      },
      "decimals()": {
        "details": "Returns the number of decimals used to get its user representation. For example, if `decimals` equals `2`, a balance of `505` tokens should be displayed to a user as `5.05` (`505 / 10 ** 2`). Tokens usually opt for a value of 18, imitating the relationship between Ether and Wei. This is the default value returned by this function, unless it's overridden. NOTE: This information is only used for _display_ purposes: it in no way affects any of the arithmetic of the contract, including {IERC20-balanceOf} and {IERC20-transfer}."
      },
      "decreaseAllowance(address,uint256)": {
        "details": "Atomically decreases the allowance granted to `spender` by the caller. This is an alternative to {approve} that can be used as a mitigation for problems described in {IERC20-approve}. Emits an {Approval} event indicating the updated allowance. Requirements: - `spender` cannot be the zero address. - `spender` must have allowance for the caller of at least `subtractedValue`."
      },
      "delegate(address)": {
        "details": "Delegate votes from the sender to `delegatee`."
      },
      "delegateBySig(address,uint256,uint256,uint8,bytes32,bytes32)": {
        "details": "Delegates votes from signer to `delegatee`"
      },
      "delegates(address)": {
        "details": "Get the address `account` is currently delegating to."
      },
      "eip712Domain()": {
        "details": "See {EIP-5267}. _Available since v4.9._"
      },
      "getPastTotalSupply(uint256)": {
        "details": "Retrieve the `totalSupply` at the end of `timepoint`. Note, this value is the sum of all balances. It is NOT the sum of all the delegated votes! Requirements: - `timepoint` must be in the past"
      },
      "getPastVotes(address,uint256)": {
        "details": "Retrieve the number of votes for `account` at the end of `timepoint`. Requirements: - `timepoint` must be in the past"
      },
      "getVotes(address)": {
        "details": "Gets the current votes balance for `account`"
      },
      "increaseAllowance(address,uint256)": {
        "details": "Atomically increases the allowance granted to `spender` by the caller. This is an alternative to {approve} that can be used as a mitigation for problems described in {IERC20-approve}. Emits an {Approval} event indicating the updated allowance. Requirements: - `spender` cannot be the zero address."
      },
      "name()": {
        "details": "Returns the name of the token."
      },
      "nonces(address)": {
        "details": "See {IERC20Permit-nonces}."
      },
      "numCheckpoints(address)": {
        "details": "Get number of checkpoints for `account`."
      },
      "permit(address,address,uint256,uint256,uint8,bytes32,bytes32)": {
        "details": "See {IERC20Permit-permit}."
      },
      "renounceAdmin()": {
        "details": "Renounce admin if no one should have it anymore.*"
      },
      "setPunishmentFee(uint256)": {
        "details": "How much of the bot's trade to take back",
        "params": {
          "_newFee": "1% = 1 * 10^5*"
        }
      },
      "symbol()": {
        "details": "Returns the symbol of the token, usually a shorter version of the name."
      },
      "toggleDex(address)": {
        "details": "Turn a new dex address either on or off",
        "params": {
          "_newDex": "The address of the dex.*"
        }
      },
      "totalSupply()": {
        "details": "See {IERC20-totalSupply}."
      },
      "transfer(address,uint256)": {
        "details": "See {IERC20-transfer}. Requirements: - `to` cannot be the zero address. - the caller must have a balance of at least `amount`."
      },
      "transferAdmin(address)": {
        "details": "Make a new admin pending. I hate 1-step ownership transfers. They terrify me.",
        "params": {
          "_newAdmin": "The new address to transfer to.*"
        }
      },
      "transferFrom(address,address,uint256)": {
        "details": "See {IERC20-transferFrom}. Emits an {Approval} event indicating the updated allowance. This is not required by the EIP. See the note at the beginning of {ERC20}. NOTE: Does not update the allowance if the current allowance is the maximum `uint256`. Requirements: - `from` and `to` cannot be the zero address. - `from` must have a balance of at least `amount`. - the caller must have allowance for ``from``'s tokens of at least `amount`."
      }
    },
    "title": "RobinHoo Coin Based on Inedible Coin https://www.inediblecoin.com/ 0x3486b751a36f731a1bebff779374bad635864919 The difference is that RobinHoo **allows** sandwich attack BUT it tries to punish the bot - taking a small fee from it's balance and giving it back to the victim. In case it can't, sandwiching transactions will revert. Note: it also handles the situation with multiple sandwiching transaction AND multiple attempts per block. BOT : B VICTIM : V BUY/SELL : B/S Simple case: - B B - V B - B S Multiple wraps: - B1 B - B2 B - V B - B2 S - B1 S Multiple attempts: - B1 B - V B - B1 S - B2 B - V2 B - B2 S*",
    "version": 1
  },
  "userdoc": {
    "kind": "user",
    "methods": {},
    "version": 1
  }
}