{
  "contractName": "RobinHoo",
  "abi": [
    {
      "inputs": [],
      "stateMutability": "nonpayable",
      "type": "constructor"
    },
    {
      "inputs": [],
      "name": "InvalidShortString",
      "type": "error"
    },
    {
      "inputs": [
        {
          "internalType": "string",
          "name": "str",
          "type": "string"
        }
      ],
      "name": "StringTooLong",
      "type": "error"
    },
    {
      "anonymous": false,
      "inputs": [
        {
          "indexed": true,
          "internalType": "address",
          "name": "owner",
          "type": "address"
        },
        {
          "indexed": true,
          "internalType": "address",
          "name": "spender",
          "type": "address"
        },
        {
          "indexed": false,
          "internalType": "uint256",
          "name": "value",
          "type": "uint256"
        }
      ],
      "name": "Approval",
      "type": "event"
    },
    {
      "anonymous": false,
      "inputs": [
        {
          "indexed": true,
          "internalType": "address",
          "name": "delegator",
          "type": "address"
        },
        {
          "indexed": true,
          "internalType": "address",
          "name": "fromDelegate",
          "type": "address"
        },
        {
          "indexed": true,
          "internalType": "address",
          "name": "toDelegate",
          "type": "address"
        }
      ],
      "name": "DelegateChanged",
      "type": "event"
    },
    {
      "anonymous": false,
      "inputs": [
        {
          "indexed": true,
          "internalType": "address",
          "name": "delegate",
          "type": "address"
        },
        {
          "indexed": false,
          "internalType": "uint256",
          "name": "previousBalance",
          "type": "uint256"
        },
        {
          "indexed": false,
          "internalType": "uint256",
          "name": "newBalance",
          "type": "uint256"
        }
      ],
      "name": "DelegateVotesChanged",
      "type": "event"
    },
    {
      "anonymous": false,
      "inputs": [],
      "name": "EIP712DomainChanged",
      "type": "event"
    },
    {
      "anonymous": false,
      "inputs": [
        {
          "indexed": true,
          "internalType": "address",
          "name": "from",
          "type": "address"
        },
        {
          "indexed": true,
          "internalType": "address",
          "name": "to",
          "type": "address"
        },
        {
          "indexed": false,
          "internalType": "uint256",
          "name": "value",
          "type": "uint256"
        }
      ],
      "name": "Transfer",
      "type": "event"
    },
    {
      "inputs": [],
      "name": "CLOCK_MODE",
      "outputs": [
        {
          "internalType": "string",
          "name": "",
          "type": "string"
        }
      ],
      "stateMutability": "view",
      "type": "function",
      "constant": true
    },
    {
      "inputs": [],
      "name": "DOMAIN_SEPARATOR",
      "outputs": [
        {
          "internalType": "bytes32",
          "name": "",
          "type": "bytes32"
        }
      ],
      "stateMutability": "view",
      "type": "function",
      "constant": true
    },
    {
      "inputs": [],
      "name": "admin",
      "outputs": [
        {
          "internalType": "address",
          "name": "",
          "type": "address"
        }
      ],
      "stateMutability": "view",
      "type": "function",
      "constant": true
    },
    {
      "inputs": [
        {
          "internalType": "address",
          "name": "owner",
          "type": "address"
        },
        {
          "internalType": "address",
          "name": "spender",
          "type": "address"
        }
      ],
      "name": "allowance",
      "outputs": [
        {
          "internalType": "uint256",
          "name": "",
          "type": "uint256"
        }
      ],
      "stateMutability": "view",
      "type": "function",
      "constant": true
    },
    {
      "inputs": [
        {
          "internalType": "address",
          "name": "spender",
          "type": "address"
        },
        {
          "internalType": "uint256",
          "name": "amount",
          "type": "uint256"
        }
      ],
      "name": "approve",
      "outputs": [
        {
          "internalType": "bool",
          "name": "",
          "type": "bool"
        }
      ],
      "stateMutability": "nonpayable",
      "type": "function"
    },
    {
      "inputs": [
        {
          "internalType": "address",
          "name": "account",
          "type": "address"
        }
      ],
      "name": "balanceOf",
      "outputs": [
        {
          "internalType": "uint256",
          "name": "",
          "type": "uint256"
        }
      ],
      "stateMutability": "view",
      "type": "function",
      "constant": true
    },
    {
      "inputs": [
        {
          "internalType": "address",
          "name": "account",
          "type": "address"
        },
        {
          "internalType": "uint32",
          "name": "pos",
          "type": "uint32"
        }
      ],
      "name": "checkpoints",
      "outputs": [
        {
          "components": [
            {
              "internalType": "uint32",
              "name": "fromBlock",
              "type": "uint32"
            },
            {
              "internalType": "uint224",
              "name": "votes",
              "type": "uint224"
            }
          ],
          "internalType": "struct ERC20Votes.Checkpoint",
          "name": "",
          "type": "tuple"
        }
      ],
      "stateMutability": "view",
      "type": "function",
      "constant": true
    },
    {
      "inputs": [],
      "name": "clock",
      "outputs": [
        {
          "internalType": "uint48",
          "name": "",
          "type": "uint48"
        }
      ],
      "stateMutability": "view",
      "type": "function",
      "constant": true
    },
    {
      "inputs": [],
      "name": "decimals",
      "outputs": [
        {
          "internalType": "uint8",
          "name": "",
          "type": "uint8"
        }
      ],
      "stateMutability": "view",
      "type": "function",
      "constant": true
    },
    {
      "inputs": [
        {
          "internalType": "address",
          "name": "spender",
          "type": "address"
        },
        {
          "internalType": "uint256",
          "name": "subtractedValue",
          "type": "uint256"
        }
      ],
      "name": "decreaseAllowance",
      "outputs": [
        {
          "internalType": "bool",
          "name": "",
          "type": "bool"
        }
      ],
      "stateMutability": "nonpayable",
      "type": "function"
    },
    {
      "inputs": [
        {
          "internalType": "address",
          "name": "delegatee",
          "type": "address"
        }
      ],
      "name": "delegate",
      "outputs": [],
      "stateMutability": "nonpayable",
      "type": "function"
    },
    {
      "inputs": [
        {
          "internalType": "address",
          "name": "delegatee",
          "type": "address"
        },
        {
          "internalType": "uint256",
          "name": "nonce",
          "type": "uint256"
        },
        {
          "internalType": "uint256",
          "name": "expiry",
          "type": "uint256"
        },
        {
          "internalType": "uint8",
          "name": "v",
          "type": "uint8"
        },
        {
          "internalType": "bytes32",
          "name": "r",
          "type": "bytes32"
        },
        {
          "internalType": "bytes32",
          "name": "s",
          "type": "bytes32"
        }
      ],
      "name": "delegateBySig",
      "outputs": [],
      "stateMutability": "nonpayable",
      "type": "function"
    },
    {
      "inputs": [
        {
          "internalType": "address",
          "name": "account",
          "type": "address"
        }
      ],
      "name": "delegates",
      "outputs": [
        {
          "internalType": "address",
          "name": "",
          "type": "address"
        }
      ],
      "stateMutability": "view",
      "type": "function",
      "constant": true
    },
    {
      "inputs": [],
      "name": "eip712Domain",
      "outputs": [
        {
          "internalType": "bytes1",
          "name": "fields",
          "type": "bytes1"
        },
        {
          "internalType": "string",
          "name": "name",
          "type": "string"
        },
        {
          "internalType": "string",
          "name": "version",
          "type": "string"
        },
        {
          "internalType": "uint256",
          "name": "chainId",
          "type": "uint256"
        },
        {
          "internalType": "address",
          "name": "verifyingContract",
          "type": "address"
        },
        {
          "internalType": "bytes32",
          "name": "salt",
          "type": "bytes32"
        },
        {
          "internalType": "uint256[]",
          "name": "extensions",
          "type": "uint256[]"
        }
      ],
      "stateMutability": "view",
      "type": "function",
      "constant": true
    },
    {
      "inputs": [
        {
          "internalType": "uint256",
          "name": "timepoint",
          "type": "uint256"
        }
      ],
      "name": "getPastTotalSupply",
      "outputs": [
        {
          "internalType": "uint256",
          "name": "",
          "type": "uint256"
        }
      ],
      "stateMutability": "view",
      "type": "function",
      "constant": true
    },
    {
      "inputs": [
        {
          "internalType": "address",
          "name": "account",
          "type": "address"
        },
        {
          "internalType": "uint256",
          "name": "timepoint",
          "type": "uint256"
        }
      ],
      "name": "getPastVotes",
      "outputs": [
        {
          "internalType": "uint256",
          "name": "",
          "type": "uint256"
        }
      ],
      "stateMutability": "view",
      "type": "function",
      "constant": true
    },
    {
      "inputs": [
        {
          "internalType": "address",
          "name": "account",
          "type": "address"
        }
      ],
      "name": "getVotes",
      "outputs": [
        {
          "internalType": "uint256",
          "name": "",
          "type": "uint256"
        }
      ],
      "stateMutability": "view",
      "type": "function",
      "constant": true
    },
    {
      "inputs": [
        {
          "internalType": "address",
          "name": "spender",
          "type": "address"
        },
        {
          "internalType": "uint256",
          "name": "addedValue",
          "type": "uint256"
        }
      ],
      "name": "increaseAllowance",
      "outputs": [
        {
          "internalType": "bool",
          "name": "",
          "type": "bool"
        }
      ],
      "stateMutability": "nonpayable",
      "type": "function"
    },
    {
      "inputs": [],
      "name": "name",
      "outputs": [
        {
          "internalType": "string",
          "name": "",
          "type": "string"
        }
      ],
      "stateMutability": "view",
      "type": "function",
      "constant": true
    },
    {
      "inputs": [
        {
          "internalType": "address",
          "name": "owner",
          "type": "address"
        }
      ],
      "name": "nonces",
      "outputs": [
        {
          "internalType": "uint256",
          "name": "",
          "type": "uint256"
        }
      ],
      "stateMutability": "view",
      "type": "function",
      "constant": true
    },
    {
      "inputs": [
        {
          "internalType": "address",
          "name": "account",
          "type": "address"
        }
      ],
      "name": "numCheckpoints",
      "outputs": [
        {
          "internalType": "uint32",
          "name": "",
          "type": "uint32"
        }
      ],
      "stateMutability": "view",
      "type": "function",
      "constant": true
    },
    {
      "inputs": [],
      "name": "pendingAdmin",
      "outputs": [
        {
          "internalType": "address",
          "name": "",
          "type": "address"
        }
      ],
      "stateMutability": "view",
      "type": "function",
      "constant": true
    },
    {
      "inputs": [
        {
          "internalType": "address",
          "name": "owner",
          "type": "address"
        },
        {
          "internalType": "address",
          "name": "spender",
          "type": "address"
        },
        {
          "internalType": "uint256",
          "name": "value",
          "type": "uint256"
        },
        {
          "internalType": "uint256",
          "name": "deadline",
          "type": "uint256"
        },
        {
          "internalType": "uint8",
          "name": "v",
          "type": "uint8"
        },
        {
          "internalType": "bytes32",
          "name": "r",
          "type": "bytes32"
        },
        {
          "internalType": "bytes32",
          "name": "s",
          "type": "bytes32"
        }
      ],
      "name": "permit",
      "outputs": [],
      "stateMutability": "nonpayable",
      "type": "function"
    },
    {
      "inputs": [],
      "name": "punishmentFee",
      "outputs": [
        {
          "internalType": "uint256",
          "name": "",
          "type": "uint256"
        }
      ],
      "stateMutability": "view",
      "type": "function",
      "constant": true
    },
    {
      "inputs": [],
      "name": "symbol",
      "outputs": [
        {
          "internalType": "string",
          "name": "",
          "type": "string"
        }
      ],
      "stateMutability": "view",
      "type": "function",
      "constant": true
    },
    {
      "inputs": [],
      "name": "totalSupply",
      "outputs": [
        {
          "internalType": "uint256",
          "name": "",
          "type": "uint256"
        }
      ],
      "stateMutability": "view",
      "type": "function",
      "constant": true
    },
    {
      "inputs": [
        {
          "internalType": "address",
          "name": "to",
          "type": "address"
        },
        {
          "internalType": "uint256",
          "name": "amount",
          "type": "uint256"
        }
      ],
      "name": "transfer",
      "outputs": [
        {
          "internalType": "bool",
          "name": "",
          "type": "bool"
        }
      ],
      "stateMutability": "nonpayable",
      "type": "function"
    },
    {
      "inputs": [
        {
          "internalType": "address",
          "name": "from",
          "type": "address"
        },
        {
          "internalType": "address",
          "name": "to",
          "type": "address"
        },
        {
          "internalType": "uint256",
          "name": "amount",
          "type": "uint256"
        }
      ],
      "name": "transferFrom",
      "outputs": [
        {
          "internalType": "bool",
          "name": "",
          "type": "bool"
        }
      ],
      "stateMutability": "nonpayable",
      "type": "function"
    },
    {
      "inputs": [
        {
          "internalType": "address",
          "name": "_newDex",
          "type": "address"
        }
      ],
      "name": "toggleDex",
      "outputs": [],
      "stateMutability": "nonpayable",
      "type": "function"
    },
    {
      "inputs": [
        {
          "internalType": "uint256",
          "name": "_newFee",
          "type": "uint256"
        }
      ],
      "name": "setPunishmentFee",
      "outputs": [],
      "stateMutability": "nonpayable",
      "type": "function"
    },
    {
      "inputs": [
        {
          "internalType": "address",
          "name": "_newAdmin",
          "type": "address"
        }
      ],
      "name": "transferAdmin",
      "outputs": [],
      "stateMutability": "nonpayable",
      "type": "function"
    },
    {
      "inputs": [],
      "name": "renounceAdmin",
      "outputs": [],
      "stateMutability": "nonpayable",
      "type": "function"
    },
    {
      "inputs": [],
      "name": "acceptAdmin",
      "outputs": [],
      "stateMutability": "nonpayable",
      "type": "function"
    }
  ],
  "bytecode": "0x6101606040523480156200001257600080fd5b506040518060400160405280600d81526020017f526f62696e486f6f20436f696e00000000000000000000000000000000000000815250806040518060400160405280600181526020017f31000000000000000000000000000000000000000000000000000000000000008152506040518060400160405280600d81526020017f526f62696e486f6f20436f696e000000000000000000000000000000000000008152506040518060400160405280600881526020017f524f42494e484f4f0000000000000000000000000000000000000000000000008152508160039081620000fd9190620018d5565b5080600490816200010f9190620018d5565b5050506200012d6005836200024c60201b6200172f1790919060201c565b6101208181525050620001506006826200024c60201b6200172f1790919060201c565b6101408181525050818051906020012060e08181525050808051906020012061010081815250504660a081815250506200018f620002a960201b60201c565b608081815250503073ffffffffffffffffffffffffffffffffffffffff1660c08173ffffffffffffffffffffffffffffffffffffffff1681525050505050620001ed336d2bd35ae79a49ed3975a215e000006200030660201b60201c565b33600c60006101000a81548173ffffffffffffffffffffffffffffffffffffffff021916908373ffffffffffffffffffffffffffffffffffffffff160217905550620186a06001620002409190620019eb565b600e819055506200221a565b600060208351101562000272576200026a83620003c460201b60201c565b9050620002a3565b8262000289836200043160201b620017731760201c565b60000190816200029a9190620018d5565b5060ff60001b90505b92915050565b60007f8b73c3c69bb8fe3d512ecc4cf759cc79239f7b179b0ffacaa9a75d522b39400f60e051610100514630604051602001620002eb95949392919062001aa7565b60405160208183030381529060405280519060200120905090565b6200031d82826200043b60201b6200177d1760201c565b6200032d620005a860201b60201c565b7bffffffffffffffffffffffffffffffffffffffffffffffffffffffff166200035b620005cc60201b60201c565b11156200039f576040517f08c379a0000000000000000000000000000000000000000000000000000000008152600401620003969062001b8b565b60405180910390fd5b620003be600b620005d660201b620018d31783620005ee60201b60201c565b50505050565b600080829050601f815111156200041457826040517f305a27a90000000000000000000000000000000000000000000000000000000081526004016200040b919062001c2b565b60405180910390fd5b805181620004229062001c81565b60001c1760001b915050919050565b6000819050919050565b600073ffffffffffffffffffffffffffffffffffffffff168273ffffffffffffffffffffffffffffffffffffffff1603620004ad576040517f08c379a0000000000000000000000000000000000000000000000000000000008152600401620004a49062001d41565b60405180910390fd5b620004c1600083836200091360201b60201c565b8060026000828254620004d5919062001d63565b92505081905550806000808473ffffffffffffffffffffffffffffffffffffffff1673ffffffffffffffffffffffffffffffffffffffff168152602001908152602001600020600082825401925050819055508173ffffffffffffffffffffffffffffffffffffffff16600073ffffffffffffffffffffffffffffffffffffffff167fddf252ad1be2c89b69c2b068fc378daa952ba7f163c4a11628f55a4df523b3ef8360405162000588919062001d9e565b60405180910390a3620005a46000838362000ed260201b60201c565b5050565b60007bffffffffffffffffffffffffffffffffffffffffffffffffffffffff905090565b6000600254905090565b60008183620005e6919062001d63565b905092915050565b6000806000858054905090506000808214620006be5762000619876001840362000f2260201b60201c565b6040518060400160405290816000820160009054906101000a900463ffffffff1663ffffffff1663ffffffff1681526020016000820160049054906101000a90047bffffffffffffffffffffffffffffffffffffffffffffffffffffffff167bffffffffffffffffffffffffffffffffffffffffffffffffffffffff167bffffffffffffffffffffffffffffffffffffffffffffffffffffffff1681525050620006fa565b6040518060400160405280600063ffffffff16815260200160007bffffffffffffffffffffffffffffffffffffffffffffffffffffffff168152505b905080602001517bffffffffffffffffffffffffffffffffffffffffffffffffffffffff1693506200072d84868860201c565b92506000821180156200076057506200074b62000f3760201b60201c565b65ffffffffffff16816000015163ffffffff16145b15620007e8576200077c8362000f5460201b620018e91760201c565b62000791886001850362000f2260201b60201c565b60000160046101000a8154817bffffffffffffffffffffffffffffffffffffffffffffffffffffffff02191690837bffffffffffffffffffffffffffffffffffffffffffffffffffffffff16021790555062000909565b866040518060400160405280620008216200080862000f3760201b60201c565b65ffffffffffff1662000fc260201b620019541760201c565b63ffffffff168152602001620008428662000f5460201b620018e91760201c565b7bffffffffffffffffffffffffffffffffffffffffffffffffffffffff168152509080600181540180825580915050600190039060005260206000200160009091909190915060008201518160000160006101000a81548163ffffffff021916908363ffffffff16021790555060208201518160000160046101000a8154817bffffffffffffffffffffffffffffffffffffffffffffffffffffffff02191690837bffffffffffffffffffffffffffffffffffffffffffffffffffffffff16021790555050505b5050935093915050565b6000600f60008573ffffffffffffffffffffffffffffffffffffffff1673ffffffffffffffffffffffffffffffffffffffff1681526020019081526020016000205490506000600f60008573ffffffffffffffffffffffffffffffffffffffff1673ffffffffffffffffffffffffffffffffffffffff168152602001908152602001600020549050600082111562000c33574282101562000a765742600f60008773ffffffffffffffffffffffffffffffffffffffff1673ffffffffffffffffffffffffffffffffffffffff1681526020019081526020016000208190555083601060008773ffffffffffffffffffffffffffffffffffffffff1673ffffffffffffffffffffffffffffffffffffffff16815260200190815260200160002060006101000a81548173ffffffffffffffffffffffffffffffffffffffff021916908373ffffffffffffffffffffffffffffffffffffffff16021790555062000c32565b42820362000b175760014262000a8d919062001d63565b600f60008773ffffffffffffffffffffffffffffffffffffffff1673ffffffffffffffffffffffffffffffffffffffff1681526020019081526020016000208190555083601160006101000a81548173ffffffffffffffffffffffffffffffffffffffff021916908373ffffffffffffffffffffffffffffffffffffffff16021790555062000c31565b6000601060008773ffffffffffffffffffffffffffffffffffffffff1673ffffffffffffffffffffffffffffffffffffffff16815260200190815260200160002060009054906101000a900473ffffffffffffffffffffffffffffffffffffffff1690506000601060008873ffffffffffffffffffffffffffffffffffffffff1673ffffffffffffffffffffffffffffffffffffffff16815260200190815260200160002060006101000a81548173ffffffffffffffffffffffffffffffffffffffff021916908373ffffffffffffffffffffffffffffffffffffffff16021790555062000c2f601160009054906101000a900473ffffffffffffffffffffffffffffffffffffffff1682866200101860201b60201c565b505b5b5b600081111562000ecb574281101562000d0e5742600f60008673ffffffffffffffffffffffffffffffffffffffff1673ffffffffffffffffffffffffffffffffffffffff1681526020019081526020016000208190555084601060008673ffffffffffffffffffffffffffffffffffffffff1673ffffffffffffffffffffffffffffffffffffffff16815260200190815260200160002060006101000a81548173ffffffffffffffffffffffffffffffffffffffff021916908373ffffffffffffffffffffffffffffffffffffffff16021790555062000eca565b42810362000daf5760014262000d25919062001d63565b600f60008673ffffffffffffffffffffffffffffffffffffffff1673ffffffffffffffffffffffffffffffffffffffff1681526020019081526020016000208190555084601160006101000a81548173ffffffffffffffffffffffffffffffffffffffff021916908373ffffffffffffffffffffffffffffffffffffffff16021790555062000ec9565b6000601060008673ffffffffffffffffffffffffffffffffffffffff1673ffffffffffffffffffffffffffffffffffffffff16815260200190815260200160002060009054906101000a900473ffffffffffffffffffffffffffffffffffffffff1690506000601060008773ffffffffffffffffffffffffffffffffffffffff1673ffffffffffffffffffffffffffffffffffffffff16815260200190815260200160002060006101000a81548173ffffffffffffffffffffffffffffffffffffffff021916908373ffffffffffffffffffffffffffffffffffffffff16021790555062000ec7601160009054906101000a900473ffffffffffffffffffffffffffffffffffffffff1682866200101860201b60201c565b505b5b5b5050505050565b62000eea838383620010c960201b620019a71760201c565b62000f1d62000eff84620010ce60201b60201c565b62000f1084620010ce60201b60201c565b836200113760201b60201c565b505050565b60008260005281602060002001905092915050565b600062000f4f436200135a60201b620019ac1760201c565b905090565b60007bffffffffffffffffffffffffffffffffffffffffffffffffffffffff801682111562000fba576040517f08c379a000000000000000000000000000000000000000000000000000000000815260040162000fb19062001e31565b60405180910390fd5b819050919050565b600063ffffffff801682111562001010576040517f08c379a0000000000000000000000000000000000000000000000000000000008152600401620010079062001ec9565b60405180910390fd5b819050919050565b600073ffffffffffffffffffffffffffffffffffffffff168273ffffffffffffffffffffffffffffffffffffffff160315620010c4578173ffffffffffffffffffffffffffffffffffffffff168373ffffffffffffffffffffffffffffffffffffffff160315620010c457620010c382846064620186a0600e54866200109f9190620019eb565b620010ab919062001f1a565b620010b7919062001f1a565b620013b260201b60201c565b5b505050565b505050565b6000600960008373ffffffffffffffffffffffffffffffffffffffff1673ffffffffffffffffffffffffffffffffffffffff16815260200190815260200160002060009054906101000a900473ffffffffffffffffffffffffffffffffffffffff169050919050565b8173ffffffffffffffffffffffffffffffffffffffff168373ffffffffffffffffffffffffffffffffffffffff1614158015620011745750600081115b156200135557600073ffffffffffffffffffffffffffffffffffffffff168373ffffffffffffffffffffffffffffffffffffffff161462001267576000806200120e600a60008773ffffffffffffffffffffffffffffffffffffffff1673ffffffffffffffffffffffffffffffffffffffff1681526020019081526020016000206200164360201b62001a011785620005ee60201b60201c565b915091508473ffffffffffffffffffffffffffffffffffffffff167fdec2bacdd2f05b59de34da9b523dff8be42e5e38e818c82fdb0bae774387a72483836040516200125c92919062001f52565b60405180910390a250505b600073ffffffffffffffffffffffffffffffffffffffff168273ffffffffffffffffffffffffffffffffffffffff16146200135457600080620012fb600a60008673ffffffffffffffffffffffffffffffffffffffff1673ffffffffffffffffffffffffffffffffffffffff168152602001908152602001600020620005d660201b620018d31785620005ee60201b60201c565b915091508373ffffffffffffffffffffffffffffffffffffffff167fdec2bacdd2f05b59de34da9b523dff8be42e5e38e818c82fdb0bae774387a72483836040516200134992919062001f52565b60405180910390a250505b5b505050565b600065ffffffffffff8016821115620013aa576040517f08c379a0000000000000000000000000000000000000000000000000000000008152600401620013a19062001ff5565b60405180910390fd5b819050919050565b600073ffffffffffffffffffffffffffffffffffffffff168373ffffffffffffffffffffffffffffffffffffffff160362001424576040517f08c379a00000000000000000000000000000000000000000000000000000000081526004016200141b906200208d565b60405180910390fd5b600073ffffffffffffffffffffffffffffffffffffffff168273ffffffffffffffffffffffffffffffffffffffff160362001496576040517f08c379a00000000000000000000000000000000000000000000000000000000081526004016200148d9062002125565b60405180910390fd5b620014a98383836200091360201b60201c565b60008060008573ffffffffffffffffffffffffffffffffffffffff1673ffffffffffffffffffffffffffffffffffffffff1681526020019081526020016000205490508181101562001532576040517f08c379a00000000000000000000000000000000000000000000000000000000081526004016200152990620021bd565b60405180910390fd5b8181036000808673ffffffffffffffffffffffffffffffffffffffff1673ffffffffffffffffffffffffffffffffffffffff16815260200190815260200160002081905550816000808573ffffffffffffffffffffffffffffffffffffffff1673ffffffffffffffffffffffffffffffffffffffff168152602001908152602001600020600082825401925050819055508273ffffffffffffffffffffffffffffffffffffffff168473ffffffffffffffffffffffffffffffffffffffff167fddf252ad1be2c89b69c2b068fc378daa952ba7f163c4a11628f55a4df523b3ef8460405162001622919062001d9e565b60405180910390a36200163d84848462000ed260201b60201c565b50505050565b60008183620016539190620021df565b905092915050565b600081519050919050565b7f4e487b7100000000000000000000000000000000000000000000000000000000600052604160045260246000fd5b7f4e487b7100000000000000000000000000000000000000000000000000000000600052602260045260246000fd5b60006002820490506001821680620016dd57607f821691505b602082108103620016f357620016f262001695565b5b50919050565b60008190508160005260206000209050919050565b60006020601f8301049050919050565b600082821b905092915050565b6000600883026200175d7fffffffffffffffffffffffffffffffffffffffffffffffffffffffffffffffff826200171e565b6200176986836200171e565b95508019841693508086168417925050509392505050565b6000819050919050565b6000819050919050565b6000620017b6620017b0620017aa8462001781565b6200178b565b62001781565b9050919050565b6000819050919050565b620017d28362001795565b620017ea620017e182620017bd565b8484546200172b565b825550505050565b600090565b62001801620017f2565b6200180e818484620017c7565b505050565b5b8181101562001836576200182a600082620017f7565b60018101905062001814565b5050565b601f82111562001885576200184f81620016f9565b6200185a846200170e565b810160208510156200186a578190505b6200188262001879856200170e565b83018262001813565b50505b505050565b600082821c905092915050565b6000620018aa600019846008026200188a565b1980831691505092915050565b6000620018c5838362001897565b9150826002028217905092915050565b620018e0826200165b565b67ffffffffffffffff811115620018fc57620018fb62001666565b5b620019088254620016c4565b620019158282856200183a565b600060209050601f8311600181146200194d576000841562001938578287015190505b620019448582620018b7565b865550620019b4565b601f1984166200195d86620016f9565b60005b82811015620019875784890151825560018201915060208501945060208101905062001960565b86831015620019a75784890151620019a3601f89168262001897565b8355505b6001600288020188555050505b505050505050565b7f4e487b7100000000000000000000000000000000000000000000000000000000600052601160045260246000fd5b6000620019f88262001781565b915062001a058362001781565b925082820262001a158162001781565b9150828204841483151762001a2f5762001a2e620019bc565b5b5092915050565b6000819050919050565b62001a4b8162001a36565b82525050565b62001a5c8162001781565b82525050565b600073ffffffffffffffffffffffffffffffffffffffff82169050919050565b600062001a8f8262001a62565b9050919050565b62001aa18162001a82565b82525050565b600060a08201905062001abe600083018862001a40565b62001acd602083018762001a40565b62001adc604083018662001a40565b62001aeb606083018562001a51565b62001afa608083018462001a96565b9695505050505050565b600082825260208201905092915050565b7f4552433230566f7465733a20746f74616c20737570706c79207269736b73206f60008201527f766572666c6f77696e6720766f74657300000000000000000000000000000000602082015250565b600062001b7360308362001b04565b915062001b808262001b15565b604082019050919050565b6000602082019050818103600083015262001ba68162001b64565b9050919050565b60005b8381101562001bcd57808201518184015260208101905062001bb0565b60008484015250505050565b6000601f19601f8301169050919050565b600062001bf7826200165b565b62001c03818562001b04565b935062001c1581856020860162001bad565b62001c208162001bd9565b840191505092915050565b6000602082019050818103600083015262001c47818462001bea565b905092915050565b600081519050919050565b6000819050602082019050919050565b600062001c78825162001a36565b80915050919050565b600062001c8e8262001c4f565b8262001c9a8462001c5a565b905062001ca78162001c6a565b9250602082101562001cea5762001ce57fffffffffffffffffffffffffffffffffffffffffffffffffffffffffffffffff836020036008026200171e565b831692505b5050919050565b7f45524332303a206d696e7420746f20746865207a65726f206164647265737300600082015250565b600062001d29601f8362001b04565b915062001d368262001cf1565b602082019050919050565b6000602082019050818103600083015262001d5c8162001d1a565b9050919050565b600062001d708262001781565b915062001d7d8362001781565b925082820190508082111562001d985762001d97620019bc565b5b92915050565b600060208201905062001db5600083018462001a51565b92915050565b7f53616665436173743a2076616c756520646f65736e27742066697420696e203260008201527f3234206269747300000000000000000000000000000000000000000000000000602082015250565b600062001e1960278362001b04565b915062001e268262001dbb565b604082019050919050565b6000602082019050818103600083015262001e4c8162001e0a565b9050919050565b7f53616665436173743a2076616c756520646f65736e27742066697420696e203360008201527f3220626974730000000000000000000000000000000000000000000000000000602082015250565b600062001eb160268362001b04565b915062001ebe8262001e53565b604082019050919050565b6000602082019050818103600083015262001ee48162001ea2565b9050919050565b7f4e487b7100000000000000000000000000000000000000000000000000000000600052601260045260246000fd5b600062001f278262001781565b915062001f348362001781565b92508262001f475762001f4662001eeb565b5b828204905092915050565b600060408201905062001f69600083018562001a51565b62001f78602083018462001a51565b9392505050565b7f53616665436173743a2076616c756520646f65736e27742066697420696e203460008201527f3820626974730000000000000000000000000000000000000000000000000000602082015250565b600062001fdd60268362001b04565b915062001fea8262001f7f565b604082019050919050565b60006020820190508181036000830152620020108162001fce565b9050919050565b7f45524332303a207472616e736665722066726f6d20746865207a65726f20616460008201527f6472657373000000000000000000000000000000000000000000000000000000602082015250565b60006200207560258362001b04565b9150620020828262002017565b604082019050919050565b60006020820190508181036000830152620020a88162002066565b9050919050565b7f45524332303a207472616e7366657220746f20746865207a65726f206164647260008201527f6573730000000000000000000000000000000000000000000000000000000000602082015250565b60006200210d60238362001b04565b91506200211a82620020af565b604082019050919050565b600060208201905081810360008301526200214081620020fe565b9050919050565b7f45524332303a207472616e7366657220616d6f756e742065786365656473206260008201527f616c616e63650000000000000000000000000000000000000000000000000000602082015250565b6000620021a560268362001b04565b9150620021b28262002147565b604082019050919050565b60006020820190508181036000830152620021d88162002196565b9050919050565b6000620021ec8262001781565b9150620021f98362001781565b9250828203905081811115620022145762002213620019bc565b5b92915050565b60805160a05160c05160e051610100516101205161014051614f3d620022756000396000610e5a01526000610e26015260006129de015260006129bd01526000611eee01526000611f4401526000611f6d0152614f3d6000f3fe608060405234801561001057600080fd5b50600436106101fb5760003560e01c806370a082311161011a5780639ab24eb0116100ad578063d505accf1161007c578063d505accf146105f6578063dd62ed3e14610612578063f1127ed814610642578063f6f928c514610672578063f851a4401461068e576101fb565b80639ab24eb01461054a578063a457c2d71461057a578063a9059cbb146105aa578063c3cda520146105da576101fb565b80638bad0c0a116100e95780638bad0c0a146104d45780638e539e8c146104de57806391ddadf41461050e57806395d89b411461052c576101fb565b806370a082311461043457806375829def146104645780637ecebe001461048057806384b0196e146104b0576101fb565b80633644e51511610192578063584dfa0411610161578063584dfa041461039c578063587cde1e146103b85780635c19a95c146103e85780636fcfff4514610404576101fb565b80633644e51514610300578063395093511461031e5780633a46b1a81461034e5780634bf5d7e91461037e576101fb565b806318160ddd116101ce57806318160ddd1461027657806323b872dd1461029457806326782247146102c4578063313ce567146102e2576101fb565b806306fdde0314610200578063095ea7b31461021e5780630e18b6811461024e578063133b3b8514610258575b600080fd5b6102086106ac565b6040516102159190613602565b60405180910390f35b610238600480360381019061023391906136bd565b61073e565b6040516102459190613718565b60405180910390f35b610256610761565b005b61026061087b565b60405161026d9190613742565b60405180910390f35b61027e610881565b60405161028b9190613742565b60405180910390f35b6102ae60048036038101906102a9919061375d565b61088b565b6040516102bb9190613718565b60405180910390f35b6102cc6108ba565b6040516102d991906137bf565b60405180910390f35b6102ea6108e0565b6040516102f791906137f6565b60405180910390f35b6103086108e9565b604051610315919061382a565b60405180910390f35b610338600480360381019061033391906136bd565b6108f8565b6040516103459190613718565b60405180910390f35b610368600480360381019061036391906136bd565b61092f565b6040516103759190613742565b60405180910390f35b6103866109d2565b6040516103939190613602565b60405180910390f35b6103b660048036038101906103b19190613845565b610a60565b005b6103d260048036038101906103cd9190613845565b610bd6565b6040516103df91906137bf565b60405180910390f35b61040260048036038101906103fd9190613845565b610c3f565b005b61041e60048036038101906104199190613845565b610c53565b60405161042b9190613891565b60405180910390f35b61044e60048036038101906104499190613845565b610ca7565b60405161045b9190613742565b60405180910390f35b61047e60048036038101906104799190613845565b610cef565b005b61049a60048036038101906104959190613845565b610dc3565b6040516104a79190613742565b60405180910390f35b6104b8610e13565b6040516104cb97969594939291906139a5565b60405180910390f35b6104dc610f15565b005b6104f860048036038101906104f39190613a29565b610fe9565b6040516105059190613742565b60405180910390f35b61051661104e565b6040516105239190613a77565b60405180910390f35b61053461105e565b6040516105419190613602565b60405180910390f35b610564600480360381019061055f9190613845565b6110f0565b6040516105719190613742565b60405180910390f35b610594600480360381019061058f91906136bd565b6111f8565b6040516105a19190613718565b60405180910390f35b6105c460048036038101906105bf91906136bd565b61126f565b6040516105d19190613718565b60405180910390f35b6105f460048036038101906105ef9190613aea565b611292565b005b610610600480360381019061060b9190613b77565b611396565b005b61062c60048036038101906106279190613c19565b6114d8565b6040516106399190613742565b60405180910390f35b61065c60048036038101906106579190613c85565b61155f565b6040516106699190613d3a565b60405180910390f35b61068c60048036038101906106879190613a29565b61166f565b005b610696611709565b6040516106a391906137bf565b60405180910390f35b6060600380546106bb90613d84565b80601f01602080910402602001604051908101604052809291908181526020018280546106e790613d84565b80156107345780601f1061070957610100808354040283529160200191610734565b820191906000526020600020905b81548152906001019060200180831161071757829003601f168201915b5050505050905090565b600080610749611a17565b9050610756818585611a1f565b600191505092915050565b600d60009054906101000a900473ffffffffffffffffffffffffffffffffffffffff1673ffffffffffffffffffffffffffffffffffffffff163373ffffffffffffffffffffffffffffffffffffffff16146107f1576040517f08c379a00000000000000000000000000000000000000000000000000000000081526004016107e890613e27565b60405180910390fd5b600d60009054906101000a900473ffffffffffffffffffffffffffffffffffffffff16600c60006101000a81548173ffffffffffffffffffffffffffffffffffffffff021916908373ffffffffffffffffffffffffffffffffffffffff160217905550600d60006101000a81549073ffffffffffffffffffffffffffffffffffffffff0219169055565b600e5481565b6000600254905090565b600080610896611a17565b90506108a3858285611be8565b6108ae858585611c74565b60019150509392505050565b600d60009054906101000a900473ffffffffffffffffffffffffffffffffffffffff1681565b60006012905090565b60006108f3611eea565b905090565b600080610903611a17565b905061092481858561091585896114d8565b61091f9190613e76565b611a1f565b600191505092915050565b600061093961104e565b65ffffffffffff168210610982576040517f08c379a000000000000000000000000000000000000000000000000000000000815260040161097990613ef6565b60405180910390fd5b6109ca600a60008573ffffffffffffffffffffffffffffffffffffffff1673ffffffffffffffffffffffffffffffffffffffff16815260200190815260200160002083611fa1565b905092915050565b6060436109dd61104e565b65ffffffffffff1614610a25576040517f08c379a0000000000000000000000000000000000000000000000000000000008152600401610a1c90613f62565b60405180910390fd5b6040518060400160405280601d81526020017f6d6f64653d626c6f636b6e756d6265722666726f6d3d64656661756c74000000815250905090565b600c60009054906101000a900473ffffffffffffffffffffffffffffffffffffffff1673ffffffffffffffffffffffffffffffffffffffff163373ffffffffffffffffffffffffffffffffffffffff1614610af0576040517f08c379a0000000000000000000000000000000000000000000000000000000008152600401610ae790613ff4565b60405180910390fd5b6000600f60008373ffffffffffffffffffffffffffffffffffffffff1673ffffffffffffffffffffffffffffffffffffffff168152602001908152602001600020541115610b82576000600f60008373ffffffffffffffffffffffffffffffffffffffff1673ffffffffffffffffffffffffffffffffffffffff16815260200190815260200160002081905550610bd3565b600142610b8f9190614014565b600f60008373ffffffffffffffffffffffffffffffffffffffff1673ffffffffffffffffffffffffffffffffffffffff168152602001908152602001600020819055505b50565b6000600960008373ffffffffffffffffffffffffffffffffffffffff1673ffffffffffffffffffffffffffffffffffffffff16815260200190815260200160002060009054906101000a900473ffffffffffffffffffffffffffffffffffffffff169050919050565b610c50610c4a611a17565b826120e9565b50565b6000610ca0600a60008473ffffffffffffffffffffffffffffffffffffffff1673ffffffffffffffffffffffffffffffffffffffff16815260200190815260200160002080549050611954565b9050919050565b60008060008373ffffffffffffffffffffffffffffffffffffffff1673ffffffffffffffffffffffffffffffffffffffff168152602001908152602001600020549050919050565b600c60009054906101000a900473ffffffffffffffffffffffffffffffffffffffff1673ffffffffffffffffffffffffffffffffffffffff163373ffffffffffffffffffffffffffffffffffffffff1614610d7f576040517f08c379a0000000000000000000000000000000000000000000000000000000008152600401610d7690613ff4565b60405180910390fd5b80600d60006101000a81548173ffffffffffffffffffffffffffffffffffffffff021916908373ffffffffffffffffffffffffffffffffffffffff16021790555050565b6000610e0c600760008473ffffffffffffffffffffffffffffffffffffffff1673ffffffffffffffffffffffffffffffffffffffff168152602001908152602001600020612203565b9050919050565b600060608060008060006060610e5360057f000000000000000000000000000000000000000000000000000000000000000061221190919063ffffffff16565b610e8760067f000000000000000000000000000000000000000000000000000000000000000061221190919063ffffffff16565b46306000801b600067ffffffffffffffff811115610ea857610ea7614048565b5b604051908082528060200260200182016040528015610ed65781602001602082028036833780820191505090505b507f0f00000000000000000000000000000000000000000000000000000000000000959493929190965096509650965096509650965090919293949596565b600c60009054906101000a900473ffffffffffffffffffffffffffffffffffffffff1673ffffffffffffffffffffffffffffffffffffffff163373ffffffffffffffffffffffffffffffffffffffff1614610fa5576040517f08c379a0000000000000000000000000000000000000000000000000000000008152600401610f9c90613ff4565b60405180910390fd5b6000600c60006101000a81548173ffffffffffffffffffffffffffffffffffffffff021916908373ffffffffffffffffffffffffffffffffffffffff160217905550565b6000610ff361104e565b65ffffffffffff16821061103c576040517f08c379a000000000000000000000000000000000000000000000000000000000815260040161103390613ef6565b60405180910390fd5b611047600b83611fa1565b9050919050565b6000611059436119ac565b905090565b60606004805461106d90613d84565b80601f016020809104026020016040519081016040528092919081815260200182805461109990613d84565b80156110e65780601f106110bb576101008083540402835291602001916110e6565b820191906000526020600020905b8154815290600101906020018083116110c957829003601f168201915b5050505050905090565b600080600a60008473ffffffffffffffffffffffffffffffffffffffff1673ffffffffffffffffffffffffffffffffffffffff168152602001908152602001600020805490509050600081146111cf57600a60008473ffffffffffffffffffffffffffffffffffffffff1673ffffffffffffffffffffffffffffffffffffffff168152602001908152602001600020600182038154811061119457611193614077565b5b9060005260206000200160000160049054906101000a90047bffffffffffffffffffffffffffffffffffffffffffffffffffffffff166111d2565b60005b7bffffffffffffffffffffffffffffffffffffffffffffffffffffffff16915050919050565b600080611203611a17565b9050600061121182866114d8565b905083811015611256576040517f08c379a000000000000000000000000000000000000000000000000000000000815260040161124d90614118565b60405180910390fd5b6112638286868403611a1f565b60019250505092915050565b60008061127a611a17565b9050611287818585611c74565b600191505092915050565b834211156112d5576040517f08c379a00000000000000000000000000000000000000000000000000000000081526004016112cc90614184565b60405180910390fd5b600061133761132f7fe48329057bfd03d55e49b547132e39cffd9c1820ad7b9d4c5307691425d15adf89898960405160200161131494939291906141a4565b604051602081830303815290604052805190602001206122c1565b8585856122db565b905061134281612306565b8614611383576040517f08c379a000000000000000000000000000000000000000000000000000000000815260040161137a90614235565b60405180910390fd5b61138d81886120e9565b50505050505050565b834211156113d9576040517f08c379a00000000000000000000000000000000000000000000000000000000081526004016113d0906142a1565b60405180910390fd5b60007f6e71edae12b1b97f4d1f60370fef10105fa2faae0126114a169c64845d6126c98888886114088c612306565b8960405160200161141e969594939291906142c1565b6040516020818303038152906040528051906020012090506000611441826122c1565b90506000611451828787876122db565b90508973ffffffffffffffffffffffffffffffffffffffff168173ffffffffffffffffffffffffffffffffffffffff16146114c1576040517f08c379a00000000000000000000000000000000000000000000000000000000081526004016114b89061436e565b60405180910390fd5b6114cc8a8a8a611a1f565b50505050505050505050565b6000600160008473ffffffffffffffffffffffffffffffffffffffff1673ffffffffffffffffffffffffffffffffffffffff16815260200190815260200160002060008373ffffffffffffffffffffffffffffffffffffffff1673ffffffffffffffffffffffffffffffffffffffff16815260200190815260200160002054905092915050565b611567613534565b600a60008473ffffffffffffffffffffffffffffffffffffffff1673ffffffffffffffffffffffffffffffffffffffff1681526020019081526020016000208263ffffffff16815481106115be576115bd614077565b5b906000526020600020016040518060400160405290816000820160009054906101000a900463ffffffff1663ffffffff1663ffffffff1681526020016000820160049054906101000a90047bffffffffffffffffffffffffffffffffffffffffffffffffffffffff167bffffffffffffffffffffffffffffffffffffffffffffffffffffffff167bffffffffffffffffffffffffffffffffffffffffffffffffffffffff1681525050905092915050565b600c60009054906101000a900473ffffffffffffffffffffffffffffffffffffffff1673ffffffffffffffffffffffffffffffffffffffff163373ffffffffffffffffffffffffffffffffffffffff16146116ff576040517f08c379a00000000000000000000000000000000000000000000000000000000081526004016116f690613ff4565b60405180910390fd5b80600e8190555050565b600c60009054906101000a900473ffffffffffffffffffffffffffffffffffffffff1681565b600060208351101561174b5761174483612364565b905061176d565b8261175583611773565b6000019081611764919061453a565b5060ff60001b90505b92915050565b6000819050919050565b600073ffffffffffffffffffffffffffffffffffffffff168273ffffffffffffffffffffffffffffffffffffffff16036117ec576040517f08c379a00000000000000000000000000000000000000000000000000000000081526004016117e390614658565b60405180910390fd5b6117f8600083836123cc565b806002600082825461180a9190613e76565b92505081905550806000808473ffffffffffffffffffffffffffffffffffffffff1673ffffffffffffffffffffffffffffffffffffffff168152602001908152602001600020600082825401925050819055508173ffffffffffffffffffffffffffffffffffffffff16600073ffffffffffffffffffffffffffffffffffffffff167fddf252ad1be2c89b69c2b068fc378daa952ba7f163c4a11628f55a4df523b3ef836040516118bb9190613742565b60405180910390a36118cf6000838361296d565b5050565b600081836118e19190613e76565b905092915050565b60007bffffffffffffffffffffffffffffffffffffffffffffffffffffffff801682111561194c576040517f08c379a0000000000000000000000000000000000000000000000000000000008152600401611943906146ea565b60405180910390fd5b819050919050565b600063ffffffff801682111561199f576040517f08c379a00000000000000000000000000000000000000000000000000000000081526004016119969061477c565b60405180910390fd5b819050919050565b505050565b600065ffffffffffff80168211156119f9576040517f08c379a00000000000000000000000000000000000000000000000000000000081526004016119f09061480e565b60405180910390fd5b819050919050565b60008183611a0f9190614014565b905092915050565b600033905090565b600073ffffffffffffffffffffffffffffffffffffffff168373ffffffffffffffffffffffffffffffffffffffff1603611a8e576040517f08c379a0000000000000000000000000000000000000000000000000000000008152600401611a85906148a0565b60405180910390fd5b600073ffffffffffffffffffffffffffffffffffffffff168273ffffffffffffffffffffffffffffffffffffffff1603611afd576040517f08c379a0000000000000000000000000000000000000000000000000000000008152600401611af490614932565b60405180910390fd5b80600160008573ffffffffffffffffffffffffffffffffffffffff1673ffffffffffffffffffffffffffffffffffffffff16815260200190815260200160002060008473ffffffffffffffffffffffffffffffffffffffff1673ffffffffffffffffffffffffffffffffffffffff168152602001908152602001600020819055508173ffffffffffffffffffffffffffffffffffffffff168373ffffffffffffffffffffffffffffffffffffffff167f8c5be1e5ebec7d5bd14f71427d1e84f3dd0314c0f7b2291e5b200ac8c7c3b92583604051611bdb9190613742565b60405180910390a3505050565b6000611bf484846114d8565b90507fffffffffffffffffffffffffffffffffffffffffffffffffffffffffffffffff8114611c6e5781811015611c60576040517f08c379a0000000000000000000000000000000000000000000000000000000008152600401611c579061499e565b60405180910390fd5b611c6d8484848403611a1f565b5b50505050565b600073ffffffffffffffffffffffffffffffffffffffff168373ffffffffffffffffffffffffffffffffffffffff1603611ce3576040517f08c379a0000000000000000000000000000000000000000000000000000000008152600401611cda90614a30565b60405180910390fd5b600073ffffffffffffffffffffffffffffffffffffffff168273ffffffffffffffffffffffffffffffffffffffff1603611d52576040517f08c379a0000000000000000000000000000000000000000000000000000000008152600401611d4990614ac2565b60405180910390fd5b611d5d8383836123cc565b60008060008573ffffffffffffffffffffffffffffffffffffffff1673ffffffffffffffffffffffffffffffffffffffff16815260200190815260200160002054905081811015611de3576040517f08c379a0000000000000000000000000000000000000000000000000000000008152600401611dda90614b54565b60405180910390fd5b8181036000808673ffffffffffffffffffffffffffffffffffffffff1673ffffffffffffffffffffffffffffffffffffffff16815260200190815260200160002081905550816000808573ffffffffffffffffffffffffffffffffffffffff1673ffffffffffffffffffffffffffffffffffffffff168152602001908152602001600020600082825401925050819055508273ffffffffffffffffffffffffffffffffffffffff168473ffffffffffffffffffffffffffffffffffffffff167fddf252ad1be2c89b69c2b068fc378daa952ba7f163c4a11628f55a4df523b3ef84604051611ed19190613742565b60405180910390a3611ee484848461296d565b50505050565b60007f000000000000000000000000000000000000000000000000000000000000000073ffffffffffffffffffffffffffffffffffffffff163073ffffffffffffffffffffffffffffffffffffffff16148015611f6657507f000000000000000000000000000000000000000000000000000000000000000046145b15611f93577f00000000000000000000000000000000000000000000000000000000000000009050611f9e565b611f9b612998565b90505b90565b600080838054905090506000808290506005831115612017576000611fc584612a2e565b84611fd09190614014565b905085611fdd8883612b27565b60000160009054906101000a900463ffffffff1663ffffffff16111561200557809150612015565b6001816120129190613e76565b92505b505b5b8082101561207757600061202c8383612b3c565b9050856120398883612b27565b60000160009054906101000a900463ffffffff1663ffffffff16111561206157809150612071565b60018161206e9190613e76565b92505b50612018565b600081146120bd5761208c8660018303612b27565b60000160049054906101000a90047bffffffffffffffffffffffffffffffffffffffffffffffffffffffff166120c0565b60005b7bffffffffffffffffffffffffffffffffffffffffffffffffffffffff16935050505092915050565b60006120f483610bd6565b9050600061210184610ca7565b905082600960008673ffffffffffffffffffffffffffffffffffffffff1673ffffffffffffffffffffffffffffffffffffffff16815260200190815260200160002060006101000a81548173ffffffffffffffffffffffffffffffffffffffff021916908373ffffffffffffffffffffffffffffffffffffffff1602179055508273ffffffffffffffffffffffffffffffffffffffff168273ffffffffffffffffffffffffffffffffffffffff168573ffffffffffffffffffffffffffffffffffffffff167f3134e8a2e6d97e929a7e54011ea5485d7d196dd5f0ba4d4ef95803e8e3fc257f60405160405180910390a46121fd828483612b62565b50505050565b600081600001549050919050565b606060ff60001b831461222e5761222783612d5b565b90506122bb565b81805461223a90613d84565b80601f016020809104026020016040519081016040528092919081815260200182805461226690613d84565b80156122b35780601f10612288576101008083540402835291602001916122b3565b820191906000526020600020905b81548152906001019060200180831161229657829003601f168201915b505050505090505b92915050565b60006122d46122ce611eea565b83612dcf565b9050919050565b60008060006122ec87878787612e10565b915091506122f981612ef2565b8192505050949350505050565b600080600760008473ffffffffffffffffffffffffffffffffffffffff1673ffffffffffffffffffffffffffffffffffffffff168152602001908152602001600020905061235381612203565b915061235e81613058565b50919050565b600080829050601f815111156123b157826040517f305a27a90000000000000000000000000000000000000000000000000000000081526004016123a89190613602565b60405180910390fd5b8051816123bd90614ba4565b60001c1760001b915050919050565b6000600f60008573ffffffffffffffffffffffffffffffffffffffff1673ffffffffffffffffffffffffffffffffffffffff1681526020019081526020016000205490506000600f60008573ffffffffffffffffffffffffffffffffffffffff1673ffffffffffffffffffffffffffffffffffffffff16815260200190815260200160002054905060008211156126dd574282101561252c5742600f60008773ffffffffffffffffffffffffffffffffffffffff1673ffffffffffffffffffffffffffffffffffffffff1681526020019081526020016000208190555083601060008773ffffffffffffffffffffffffffffffffffffffff1673ffffffffffffffffffffffffffffffffffffffff16815260200190815260200160002060006101000a81548173ffffffffffffffffffffffffffffffffffffffff021916908373ffffffffffffffffffffffffffffffffffffffff1602179055506126dc565b4282036125c9576001426125409190613e76565b600f60008773ffffffffffffffffffffffffffffffffffffffff1673ffffffffffffffffffffffffffffffffffffffff1681526020019081526020016000208190555083601160006101000a81548173ffffffffffffffffffffffffffffffffffffffff021916908373ffffffffffffffffffffffffffffffffffffffff1602179055506126db565b6000601060008773ffffffffffffffffffffffffffffffffffffffff1673ffffffffffffffffffffffffffffffffffffffff16815260200190815260200160002060009054906101000a900473ffffffffffffffffffffffffffffffffffffffff1690506000601060008873ffffffffffffffffffffffffffffffffffffffff1673ffffffffffffffffffffffffffffffffffffffff16815260200190815260200160002060006101000a81548173ffffffffffffffffffffffffffffffffffffffff021916908373ffffffffffffffffffffffffffffffffffffffff1602179055506126d9601160009054906101000a900473ffffffffffffffffffffffffffffffffffffffff16828661306e565b505b5b5b600081111561296657428110156127b55742600f60008673ffffffffffffffffffffffffffffffffffffffff1673ffffffffffffffffffffffffffffffffffffffff1681526020019081526020016000208190555084601060008673ffffffffffffffffffffffffffffffffffffffff1673ffffffffffffffffffffffffffffffffffffffff16815260200190815260200160002060006101000a81548173ffffffffffffffffffffffffffffffffffffffff021916908373ffffffffffffffffffffffffffffffffffffffff160217905550612965565b428103612852576001426127c99190613e76565b600f60008673ffffffffffffffffffffffffffffffffffffffff1673ffffffffffffffffffffffffffffffffffffffff1681526020019081526020016000208190555084601160006101000a81548173ffffffffffffffffffffffffffffffffffffffff021916908373ffffffffffffffffffffffffffffffffffffffff160217905550612964565b6000601060008673ffffffffffffffffffffffffffffffffffffffff1673ffffffffffffffffffffffffffffffffffffffff16815260200190815260200160002060009054906101000a900473ffffffffffffffffffffffffffffffffffffffff1690506000601060008773ffffffffffffffffffffffffffffffffffffffff1673ffffffffffffffffffffffffffffffffffffffff16815260200190815260200160002060006101000a81548173ffffffffffffffffffffffffffffffffffffffff021916908373ffffffffffffffffffffffffffffffffffffffff160217905550612962601160009054906101000a900473ffffffffffffffffffffffffffffffffffffffff16828661306e565b505b5b5b5050505050565b6129788383836119a7565b61299361298484610bd6565b61298d84610bd6565b83612b62565b505050565b60007f8b73c3c69bb8fe3d512ecc4cf759cc79239f7b179b0ffacaa9a75d522b39400f7f00000000000000000000000000000000000000000000000000000000000000007f00000000000000000000000000000000000000000000000000000000000000004630604051602001612a13959493929190614c0b565b60405160208183030381529060405280519060200120905090565b6000808203612a405760009050612b22565b60006001612a4d8461310f565b901c6001901b90506001818481612a6757612a66614c5e565b5b048201901c90506001818481612a8057612a7f614c5e565b5b048201901c90506001818481612a9957612a98614c5e565b5b048201901c90506001818481612ab257612ab1614c5e565b5b048201901c90506001818481612acb57612aca614c5e565b5b048201901c90506001818481612ae457612ae3614c5e565b5b048201901c90506001818481612afd57612afc614c5e565b5b048201901c9050612b1e81828581612b1857612b17614c5e565b5b046131f0565b9150505b919050565b60008260005281602060002001905092915050565b60006002828418612b4d9190614c8d565b828416612b5a9190613e76565b905092915050565b8173ffffffffffffffffffffffffffffffffffffffff168373ffffffffffffffffffffffffffffffffffffffff1614158015612b9e5750600081115b15612d5657600073ffffffffffffffffffffffffffffffffffffffff168373ffffffffffffffffffffffffffffffffffffffff1614612c7c57600080612c25600a60008773ffffffffffffffffffffffffffffffffffffffff1673ffffffffffffffffffffffffffffffffffffffff168152602001908152602001600020611a0185613209565b915091508473ffffffffffffffffffffffffffffffffffffffff167fdec2bacdd2f05b59de34da9b523dff8be42e5e38e818c82fdb0bae774387a7248383604051612c71929190614cbe565b60405180910390a250505b600073ffffffffffffffffffffffffffffffffffffffff168273ffffffffffffffffffffffffffffffffffffffff1614612d5557600080612cfe600a60008673ffffffffffffffffffffffffffffffffffffffff1673ffffffffffffffffffffffffffffffffffffffff1681526020019081526020016000206118d385613209565b915091508373ffffffffffffffffffffffffffffffffffffffff167fdec2bacdd2f05b59de34da9b523dff8be42e5e38e818c82fdb0bae774387a7248383604051612d4a929190614cbe565b60405180910390a250505b5b505050565b60606000612d68836134e4565b90506000602067ffffffffffffffff811115612d8757612d86614048565b5b6040519080825280601f01601f191660200182016040528015612db95781602001600182028036833780820191505090505b5090508181528360208201528092505050919050565b60006040517f190100000000000000000000000000000000000000000000000000000000000081528360028201528260228201526042812091505092915050565b6000807f7fffffffffffffffffffffffffffffff5d576e7357a4501ddfe92f46681b20a08360001c1115612e4b576000600391509150612ee9565b600060018787878760405160008152602001604052604051612e709493929190614ce7565b6020604051602081039080840390855afa158015612e92573d6000803e3d6000fd5b505050602060405103519050600073ffffffffffffffffffffffffffffffffffffffff168173ffffffffffffffffffffffffffffffffffffffff1603612ee057600060019250925050612ee9565b80600092509250505b94509492505050565b60006004811115612f0657612f05614d2c565b5b816004811115612f1957612f18614d2c565b5b03156130555760016004811115612f3357612f32614d2c565b5b816004811115612f4657612f45614d2c565b5b03612f86576040517f08c379a0000000000000000000000000000000000000000000000000000000008152600401612f7d90614da7565b60405180910390fd5b60026004811115612f9a57612f99614d2c565b5b816004811115612fad57612fac614d2c565b5b03612fed576040517f08c379a0000000000000000000000000000000000000000000000000000000008152600401612fe490614e13565b60405180910390fd5b6003600481111561300157613000614d2c565b5b81600481111561301457613013614d2c565b5b03613054576040517f08c379a000000000000000000000000000000000000000000000000000000000815260040161304b90614ea5565b60405180910390fd5b5b50565b6001816000016000828254019250508190555050565b600073ffffffffffffffffffffffffffffffffffffffff168273ffffffffffffffffffffffffffffffffffffffff16031561310a578173ffffffffffffffffffffffffffffffffffffffff168373ffffffffffffffffffffffffffffffffffffffff16031561310a5761310982846064620186a0600e54866130f09190614ec5565b6130fa9190614c8d565b6131049190614c8d565b611c74565b5b505050565b600080600090506000608084901c111561313157608083901c92506080810190505b6000604084901c111561314c57604083901c92506040810190505b6000602084901c111561316757602083901c92506020810190505b6000601084901c111561318257601083901c92506010810190505b6000600884901c111561319d57600883901c92506008810190505b6000600484901c11156131b857600483901c92506004810190505b6000600284901c11156131d357600283901c92506002810190505b6000600184901c11156131e7576001810190505b80915050919050565b60008183106131ff5781613201565b825b905092915050565b60008060008580549050905060008082146132cf5761322b8760018403612b27565b6040518060400160405290816000820160009054906101000a900463ffffffff1663ffffffff1663ffffffff1681526020016000820160049054906101000a90047bffffffffffffffffffffffffffffffffffffffffffffffffffffffff167bffffffffffffffffffffffffffffffffffffffffffffffffffffffff167bffffffffffffffffffffffffffffffffffffffffffffffffffffffff168152505061330b565b6040518060400160405280600063ffffffff16815260200160007bffffffffffffffffffffffffffffffffffffffffffffffffffffffff168152505b905080602001517bffffffffffffffffffffffffffffffffffffffffffffffffffffffff16935061334084868863ffffffff16565b925060008211801561336a575061335561104e565b65ffffffffffff16816000015163ffffffff16145b156133db57613378836118e9565b6133858860018503612b27565b60000160046101000a8154817bffffffffffffffffffffffffffffffffffffffffffffffffffffffff02191690837bffffffffffffffffffffffffffffffffffffffffffffffffffffffff1602179055506134da565b8660405180604001604052806133ff6133f261104e565b65ffffffffffff16611954565b63ffffffff168152602001613413866118e9565b7bffffffffffffffffffffffffffffffffffffffffffffffffffffffff168152509080600181540180825580915050600190039060005260206000200160009091909190915060008201518160000160006101000a81548163ffffffff021916908363ffffffff16021790555060208201518160000160046101000a8154817bffffffffffffffffffffffffffffffffffffffffffffffffffffffff02191690837bffffffffffffffffffffffffffffffffffffffffffffffffffffffff16021790555050505b5050935093915050565b60008060ff8360001c169050601f81111561352b576040517fb3512b0c00000000000000000000000000000000000000000000000000000000815260040160405180910390fd5b80915050919050565b6040518060400160405280600063ffffffff16815260200160007bffffffffffffffffffffffffffffffffffffffffffffffffffffffff1681525090565b600081519050919050565b600082825260208201905092915050565b60005b838110156135ac578082015181840152602081019050613591565b60008484015250505050565b6000601f19601f8301169050919050565b60006135d482613572565b6135de818561357d565b93506135ee81856020860161358e565b6135f7816135b8565b840191505092915050565b6000602082019050818103600083015261361c81846135c9565b905092915050565b600080fd5b600073ffffffffffffffffffffffffffffffffffffffff82169050919050565b600061365482613629565b9050919050565b61366481613649565b811461366f57600080fd5b50565b6000813590506136818161365b565b92915050565b6000819050919050565b61369a81613687565b81146136a557600080fd5b50565b6000813590506136b781613691565b92915050565b600080604083850312156136d4576136d3613624565b5b60006136e285828601613672565b92505060206136f3858286016136a8565b9150509250929050565b60008115159050919050565b613712816136fd565b82525050565b600060208201905061372d6000830184613709565b92915050565b61373c81613687565b82525050565b60006020820190506137576000830184613733565b92915050565b60008060006060848603121561377657613775613624565b5b600061378486828701613672565b935050602061379586828701613672565b92505060406137a6868287016136a8565b9150509250925092565b6137b981613649565b82525050565b60006020820190506137d460008301846137b0565b92915050565b600060ff82169050919050565b6137f0816137da565b82525050565b600060208201905061380b60008301846137e7565b92915050565b6000819050919050565b61382481613811565b82525050565b600060208201905061383f600083018461381b565b92915050565b60006020828403121561385b5761385a613624565b5b600061386984828501613672565b91505092915050565b600063ffffffff82169050919050565b61388b81613872565b82525050565b60006020820190506138a66000830184613882565b92915050565b60007fff0000000000000000000000000000000000000000000000000000000000000082169050919050565b6138e1816138ac565b82525050565b600081519050919050565b600082825260208201905092915050565b6000819050602082019050919050565b61391c81613687565b82525050565b600061392e8383613913565b60208301905092915050565b6000602082019050919050565b6000613952826138e7565b61395c81856138f2565b935061396783613903565b8060005b8381101561399857815161397f8882613922565b975061398a8361393a565b92505060018101905061396b565b5085935050505092915050565b600060e0820190506139ba600083018a6138d8565b81810360208301526139cc81896135c9565b905081810360408301526139e081886135c9565b90506139ef6060830187613733565b6139fc60808301866137b0565b613a0960a083018561381b565b81810360c0830152613a1b8184613947565b905098975050505050505050565b600060208284031215613a3f57613a3e613624565b5b6000613a4d848285016136a8565b91505092915050565b600065ffffffffffff82169050919050565b613a7181613a56565b82525050565b6000602082019050613a8c6000830184613a68565b92915050565b613a9b816137da565b8114613aa657600080fd5b50565b600081359050613ab881613a92565b92915050565b613ac781613811565b8114613ad257600080fd5b50565b600081359050613ae481613abe565b92915050565b60008060008060008060c08789031215613b0757613b06613624565b5b6000613b1589828a01613672565b9650506020613b2689828a016136a8565b9550506040613b3789828a016136a8565b9450506060613b4889828a01613aa9565b9350506080613b5989828a01613ad5565b92505060a0613b6a89828a01613ad5565b9150509295509295509295565b600080600080600080600060e0888a031215613b9657613b95613624565b5b6000613ba48a828b01613672565b9750506020613bb58a828b01613672565b9650506040613bc68a828b016136a8565b9550506060613bd78a828b016136a8565b9450506080613be88a828b01613aa9565b93505060a0613bf98a828b01613ad5565b92505060c0613c0a8a828b01613ad5565b91505092959891949750929550565b60008060408385031215613c3057613c2f613624565b5b6000613c3e85828601613672565b9250506020613c4f85828601613672565b9150509250929050565b613c6281613872565b8114613c6d57600080fd5b50565b600081359050613c7f81613c59565b92915050565b60008060408385031215613c9c57613c9b613624565b5b6000613caa85828601613672565b9250506020613cbb85828601613c70565b9150509250929050565b613cce81613872565b82525050565b60007bffffffffffffffffffffffffffffffffffffffffffffffffffffffff82169050919050565b613d0581613cd4565b82525050565b604082016000820151613d216000850182613cc5565b506020820151613d346020850182613cfc565b50505050565b6000604082019050613d4f6000830184613d0b565b92915050565b7f4e487b7100000000000000000000000000000000000000000000000000000000600052602260045260246000fd5b60006002820490506001821680613d9c57607f821691505b602082108103613daf57613dae613d55565b5b50919050565b7f4f6e6c79207468652070656e64696e672061646d696e6973747261746f72206d60008201527f61792063616c6c20746869732066756e6374696f6e2e00000000000000000000602082015250565b6000613e1160368361357d565b9150613e1c82613db5565b604082019050919050565b60006020820190508181036000830152613e4081613e04565b9050919050565b7f4e487b7100000000000000000000000000000000000000000000000000000000600052601160045260246000fd5b6000613e8182613687565b9150613e8c83613687565b9250828201905080821115613ea457613ea3613e47565b5b92915050565b7f4552433230566f7465733a20667574757265206c6f6f6b757000000000000000600082015250565b6000613ee060198361357d565b9150613eeb82613eaa565b602082019050919050565b60006020820190508181036000830152613f0f81613ed3565b9050919050565b7f4552433230566f7465733a2062726f6b656e20636c6f636b206d6f6465000000600082015250565b6000613f4c601d8361357d565b9150613f5782613f16565b602082019050919050565b60006020820190508181036000830152613f7b81613f3f565b9050919050565b7f4f6e6c79207468652061646d696e6973747261746f72206d61792063616c6c2060008201527f746869732066756e6374696f6e2e000000000000000000000000000000000000602082015250565b6000613fde602e8361357d565b9150613fe982613f82565b604082019050919050565b6000602082019050818103600083015261400d81613fd1565b9050919050565b600061401f82613687565b915061402a83613687565b925082820390508181111561404257614041613e47565b5b92915050565b7f4e487b7100000000000000000000000000000000000000000000000000000000600052604160045260246000fd5b7f4e487b7100000000000000000000000000000000000000000000000000000000600052603260045260246000fd5b7f45524332303a2064656372656173656420616c6c6f77616e63652062656c6f7760008201527f207a65726f000000000000000000000000000000000000000000000000000000602082015250565b600061410260258361357d565b915061410d826140a6565b604082019050919050565b60006020820190508181036000830152614131816140f5565b9050919050565b7f4552433230566f7465733a207369676e61747572652065787069726564000000600082015250565b600061416e601d8361357d565b915061417982614138565b602082019050919050565b6000602082019050818103600083015261419d81614161565b9050919050565b60006080820190506141b9600083018761381b565b6141c660208301866137b0565b6141d36040830185613733565b6141e06060830184613733565b95945050505050565b7f4552433230566f7465733a20696e76616c6964206e6f6e636500000000000000600082015250565b600061421f60198361357d565b915061422a826141e9565b602082019050919050565b6000602082019050818103600083015261424e81614212565b9050919050565b7f45524332305065726d69743a206578706972656420646561646c696e65000000600082015250565b600061428b601d8361357d565b915061429682614255565b602082019050919050565b600060208201905081810360008301526142ba8161427e565b9050919050565b600060c0820190506142d6600083018961381b565b6142e360208301886137b0565b6142f060408301876137b0565b6142fd6060830186613733565b61430a6080830185613733565b61431760a0830184613733565b979650505050505050565b7f45524332305065726d69743a20696e76616c6964207369676e61747572650000600082015250565b6000614358601e8361357d565b915061436382614322565b602082019050919050565b600060208201905081810360008301526143878161434b565b9050919050565b60008190508160005260206000209050919050565b60006020601f8301049050919050565b600082821b905092915050565b6000600883026143f07fffffffffffffffffffffffffffffffffffffffffffffffffffffffffffffffff826143b3565b6143fa86836143b3565b95508019841693508086168417925050509392505050565b6000819050919050565b600061443761443261442d84613687565b614412565b613687565b9050919050565b6000819050919050565b6144518361441c565b61446561445d8261443e565b8484546143c0565b825550505050565b600090565b61447a61446d565b614485818484614448565b505050565b5b818110156144a95761449e600082614472565b60018101905061448b565b5050565b601f8211156144ee576144bf8161438e565b6144c8846143a3565b810160208510156144d7578190505b6144eb6144e3856143a3565b83018261448a565b50505b505050565b600082821c905092915050565b6000614511600019846008026144f3565b1980831691505092915050565b600061452a8383614500565b9150826002028217905092915050565b61454382613572565b67ffffffffffffffff81111561455c5761455b614048565b5b6145668254613d84565b6145718282856144ad565b600060209050601f8311600181146145a45760008415614592578287015190505b61459c858261451e565b865550614604565b601f1984166145b28661438e565b60005b828110156145da578489015182556001820191506020850194506020810190506145b5565b868310156145f757848901516145f3601f891682614500565b8355505b6001600288020188555050505b505050505050565b7f45524332303a206d696e7420746f20746865207a65726f206164647265737300600082015250565b6000614642601f8361357d565b915061464d8261460c565b602082019050919050565b6000602082019050818103600083015261467181614635565b9050919050565b7f53616665436173743a2076616c756520646f65736e27742066697420696e203260008201527f3234206269747300000000000000000000000000000000000000000000000000602082015250565b60006146d460278361357d565b91506146df82614678565b604082019050919050565b60006020820190508181036000830152614703816146c7565b9050919050565b7f53616665436173743a2076616c756520646f65736e27742066697420696e203360008201527f3220626974730000000000000000000000000000000000000000000000000000602082015250565b600061476660268361357d565b91506147718261470a565b604082019050919050565b6000602082019050818103600083015261479581614759565b9050919050565b7f53616665436173743a2076616c756520646f65736e27742066697420696e203460008201527f3820626974730000000000000000000000000000000000000000000000000000602082015250565b60006147f860268361357d565b91506148038261479c565b604082019050919050565b60006020820190508181036000830152614827816147eb565b9050919050565b7f45524332303a20617070726f76652066726f6d20746865207a65726f2061646460008201527f7265737300000000000000000000000000000000000000000000000000000000602082015250565b600061488a60248361357d565b91506148958261482e565b604082019050919050565b600060208201905081810360008301526148b98161487d565b9050919050565b7f45524332303a20617070726f766520746f20746865207a65726f20616464726560008201527f7373000000000000000000000000000000000000000000000000000000000000602082015250565b600061491c60228361357d565b9150614927826148c0565b604082019050919050565b6000602082019050818103600083015261494b8161490f565b9050919050565b7f45524332303a20696e73756666696369656e7420616c6c6f77616e6365000000600082015250565b6000614988601d8361357d565b915061499382614952565b602082019050919050565b600060208201905081810360008301526149b78161497b565b9050919050565b7f45524332303a207472616e736665722066726f6d20746865207a65726f20616460008201527f6472657373000000000000000000000000000000000000000000000000000000602082015250565b6000614a1a60258361357d565b9150614a25826149be565b604082019050919050565b60006020820190508181036000830152614a4981614a0d565b9050919050565b7f45524332303a207472616e7366657220746f20746865207a65726f206164647260008201527f6573730000000000000000000000000000000000000000000000000000000000602082015250565b6000614aac60238361357d565b9150614ab782614a50565b604082019050919050565b60006020820190508181036000830152614adb81614a9f565b9050919050565b7f45524332303a207472616e7366657220616d6f756e742065786365656473206260008201527f616c616e63650000000000000000000000000000000000000000000000000000602082015250565b6000614b3e60268361357d565b9150614b4982614ae2565b604082019050919050565b60006020820190508181036000830152614b6d81614b31565b9050919050565b600081519050919050565b6000819050602082019050919050565b6000614b9b8251613811565b80915050919050565b6000614baf82614b74565b82614bb984614b7f565b9050614bc481614b8f565b92506020821015614c0457614bff7fffffffffffffffffffffffffffffffffffffffffffffffffffffffffffffffff836020036008026143b3565b831692505b5050919050565b600060a082019050614c20600083018861381b565b614c2d602083018761381b565b614c3a604083018661381b565b614c476060830185613733565b614c5460808301846137b0565b9695505050505050565b7f4e487b7100000000000000000000000000000000000000000000000000000000600052601260045260246000fd5b6000614c9882613687565b9150614ca383613687565b925082614cb357614cb2614c5e565b5b828204905092915050565b6000604082019050614cd36000830185613733565b614ce06020830184613733565b9392505050565b6000608082019050614cfc600083018761381b565b614d0960208301866137e7565b614d16604083018561381b565b614d23606083018461381b565b95945050505050565b7f4e487b7100000000000000000000000000000000000000000000000000000000600052602160045260246000fd5b7f45434453413a20696e76616c6964207369676e61747572650000000000000000600082015250565b6000614d9160188361357d565b9150614d9c82614d5b565b602082019050919050565b60006020820190508181036000830152614dc081614d84565b9050919050565b7f45434453413a20696e76616c6964207369676e6174757265206c656e67746800600082015250565b6000614dfd601f8361357d565b9150614e0882614dc7565b602082019050919050565b60006020820190508181036000830152614e2c81614df0565b9050919050565b7f45434453413a20696e76616c6964207369676e6174757265202773272076616c60008201527f7565000000000000000000000000000000000000000000000000000000000000602082015250565b6000614e8f60228361357d565b9150614e9a82614e33565b604082019050919050565b60006020820190508181036000830152614ebe81614e82565b9050919050565b6000614ed082613687565b9150614edb83613687565b9250828202614ee981613687565b91508282048414831517614f0057614eff613e47565b5b509291505056fea264697066735822122019c708933ecc930da64d22fbd51e4be604a4b0acce0846a730dfacee78c16f0864736f6c63430008120033",
  "immutableReferences": {
    "2792": [
      {
        "length": 32,
        "start": 8045
      }
    ],
    "2794": [
      {
        "length": 32,
        "start": 8004
      }
    ],
    "2796": [
      {
        "length": 32,
        "start": 7918
      }
    ],
    "2798": [
      {
        "length": 32,
        "start": 10685
      }
    ],
    "2800": [
      {
        "length": 32,
        "start": 10718
      }
    ],
    "2803": [
      {
        "length": 32,
        "start": 3622
      }
    ],
    "2806": [
      {
        "length": 32,
        "start": 3674
      }
    ]
  },
  "source": "// SPDX-License-Identifier: MIT License\npragma solidity 0.8.18;\n\nimport \"@openzeppelin/contracts/token/ERC20/extensions/ERC20Votes.sol\";\n\n/**\n@title RobinHoo Coin\n\nBased on Inedible Coin\nhttps://www.inediblecoin.com/\n0x3486b751a36f731a1bebff779374bad635864919\n\nThe difference is that RobinHoo **allows** sandwich attack BUT it tries to punish the bot - taking\na small fee from it's balance and giving it back to the victim.\nIn case it can't, the 2nd sandwiching transaction will revert.\n\nNote: this version doesn't prevent double sandwiching yet.\n**/\n\ncontract RobinHoo is ERC20Votes {\n\n    uint256 constant PRECISION = 10**5;\n\n    // Only privilege admin has is to add more dexes.\n    // The centralization here shouldn't cause any problem.\n    address public admin;\n    address public pendingAdmin;\n    uint256 public punishmentFee;\n\n    // Dexes that you want to limit interaction with.\n    mapping(address => uint256) private dexSwaps;\n    // dex => actor\n    mapping(address => address) private blockActor;\n    address private victim;\n\n    constructor()\n    ERC20(\"RobinHoo Coin\", \"ROBINHOO\")\n    ERC20Permit(\"RobinHoo Coin\")\n    {\n        _mint(msg.sender, 888_888_888_888_888 ether);\n        admin = msg.sender;\n        punishmentFee = 1 * PRECISION;\n    }\n    modifier onlyAdmin {\n        require(msg.sender == admin, \"Only the administrator may call this function.\");\n        _;\n    }\n\n    /**\n     * @dev On every 3rd trading transaction will check if there was an opposite 2nd tx (and 1st was the same direction)\n     * and will try to forcibly take some amount back to the victim\n     * @param _to Address that the funds are being sent to.\n     * @param _from Address that the funds are being sent from.\n     * @param _amount Trading amount\n    **/\n    function _beforeTokenTransfer(address _to, address _from, uint256 _amount)\n    internal\n    override\n    {\n        uint256 toSwap = dexSwaps[_to];\n        uint256 fromSwap = dexSwaps[_from];\n\n        if (toSwap > 0) {\n            if (toSwap < block.timestamp) {// No interactions have occurred this block.\n                dexSwaps[_to] = block.timestamp;\n                blockActor[_to] = _from;\n            } else if (toSwap == block.timestamp) {// 1 interaction has occurred this block.\n                dexSwaps[_to] = block.timestamp + 1;\n                victim = _from;\n            } else {\n                address _badGuy = blockActor[_to];\n                blockActor[_to] = address(0);\n                _punishOrFail(victim, _badGuy, _amount);\n            }\n        }\n\n        if (fromSwap > 0) {\n            if (fromSwap < block.timestamp) {\n                dexSwaps[_from] = block.timestamp;\n                blockActor[_from] = _to;\n            } else if (fromSwap == block.timestamp) {\n                dexSwaps[_from] = block.timestamp + 1;\n                victim = _to;\n            } else {\n                address _badGuy = blockActor[_from];\n                blockActor[_from] = address(0);\n                _punishOrFail(victim, _badGuy, _amount);\n            }\n        }\n    }\n\n    function _punishOrFail(address _victim, address _badGuy, uint256 _amount)\n    internal\n    {\n        if (_badGuy == address(0)) return;  //single direction trades OR 3+ tx in block\n        if (_victim == _badGuy) return;     //opposite trades by same actor\n        _transfer(_badGuy, _victim, _amount * punishmentFee / PRECISION / 100);\n\n    }\n\n    /**\n     * @dev Turn a new dex address either on or off\n     * @param _newDex The address of the dex.\n    **/\n    function toggleDex(address _newDex)\n    external\n    onlyAdmin\n    {\n        if (dexSwaps[_newDex] > 0) dexSwaps[_newDex] = 0;\n        else dexSwaps[_newDex] = block.timestamp - 1;\n    }\n\n    /**\n     * @dev How much of the bot's trade to take back\n     * @param _newFee 1% = 1 * 10^5\n    **/\n    function setPunishmentFee(uint _newFee)\n    external\n    onlyAdmin\n    {\n        punishmentFee = _newFee;\n    }\n\n    /**\n     * @dev Make a new admin pending. I hate 1-step ownership transfers. They terrify me.\n     * @param _newAdmin The new address to transfer to.\n    **/\n    function transferAdmin(address _newAdmin)\n    external\n    onlyAdmin\n    {\n        pendingAdmin = _newAdmin;\n    }\n\n    /**\n     * @dev Renounce admin if no one should have it anymore.\n    **/\n    function renounceAdmin()\n    external\n    onlyAdmin\n    {\n        admin = address(0);\n    }\n\n    /**\n     * @dev Accept administrator from the pending address.\n    **/\n    function acceptAdmin()\n    external\n    {\n        require(msg.sender == pendingAdmin, \"Only the pending administrator may call this function.\");\n        admin = pendingAdmin;\n        delete pendingAdmin;\n    }\n\n}\n",
  "sourcePath": "/Users/kirilivanov/DEV/superInedible/contracts/RobinHoo.sol",
  "compiler": {
    "name": "solc",
    "version": "0.8.18+commit.87f61d96.Emscripten.clang"
  },
  "schemaVersion": "3.4.14",
  "updatedAt": "2023-06-29T07:46:26.834Z",
  "networkType": "ethereum",
  "devdoc": {
    "events": {
      "Approval(address,address,uint256)": {
        "details": "Emitted when the allowance of a `spender` for an `owner` is set by a call to {approve}. `value` is the new allowance."
      },
      "DelegateChanged(address,address,address)": {
        "details": "Emitted when an account changes their delegate."
      },
      "DelegateVotesChanged(address,uint256,uint256)": {
        "details": "Emitted when a token transfer or delegate change results in changes to a delegate's number of votes."
      },
      "EIP712DomainChanged()": {
        "details": "MAY be emitted to signal that the domain could have changed."
      },
      "Transfer(address,address,uint256)": {
        "details": "Emitted when `value` tokens are moved from one account (`from`) to another (`to`). Note that `value` may be zero."
      }
    },
    "kind": "dev",
    "methods": {
      "CLOCK_MODE()": {
        "details": "Description of the clock"
      },
      "DOMAIN_SEPARATOR()": {
        "details": "See {IERC20Permit-DOMAIN_SEPARATOR}."
      },
      "acceptAdmin()": {
        "details": "Accept administrator from the pending address.*"
      },
      "allowance(address,address)": {
        "details": "See {IERC20-allowance}."
      },
      "approve(address,uint256)": {
        "details": "See {IERC20-approve}. NOTE: If `amount` is the maximum `uint256`, the allowance is not updated on `transferFrom`. This is semantically equivalent to an infinite approval. Requirements: - `spender` cannot be the zero address."
      },
      "balanceOf(address)": {
        "details": "See {IERC20-balanceOf}."
      },
      "checkpoints(address,uint32)": {
        "details": "Get the `pos`-th checkpoint for `account`."
      },
      "clock()": {
        "details": "Clock used for flagging checkpoints. Can be overridden to implement timestamp based checkpoints (and voting)."
      },
      "decimals()": {
        "details": "Returns the number of decimals used to get its user representation. For example, if `decimals` equals `2`, a balance of `505` tokens should be displayed to a user as `5.05` (`505 / 10 ** 2`). Tokens usually opt for a value of 18, imitating the relationship between Ether and Wei. This is the default value returned by this function, unless it's overridden. NOTE: This information is only used for _display_ purposes: it in no way affects any of the arithmetic of the contract, including {IERC20-balanceOf} and {IERC20-transfer}."
      },
      "decreaseAllowance(address,uint256)": {
        "details": "Atomically decreases the allowance granted to `spender` by the caller. This is an alternative to {approve} that can be used as a mitigation for problems described in {IERC20-approve}. Emits an {Approval} event indicating the updated allowance. Requirements: - `spender` cannot be the zero address. - `spender` must have allowance for the caller of at least `subtractedValue`."
      },
      "delegate(address)": {
        "details": "Delegate votes from the sender to `delegatee`."
      },
      "delegateBySig(address,uint256,uint256,uint8,bytes32,bytes32)": {
        "details": "Delegates votes from signer to `delegatee`"
      },
      "delegates(address)": {
        "details": "Get the address `account` is currently delegating to."
      },
      "eip712Domain()": {
        "details": "See {EIP-5267}. _Available since v4.9._"
      },
      "getPastTotalSupply(uint256)": {
        "details": "Retrieve the `totalSupply` at the end of `timepoint`. Note, this value is the sum of all balances. It is NOT the sum of all the delegated votes! Requirements: - `timepoint` must be in the past"
      },
      "getPastVotes(address,uint256)": {
        "details": "Retrieve the number of votes for `account` at the end of `timepoint`. Requirements: - `timepoint` must be in the past"
      },
      "getVotes(address)": {
        "details": "Gets the current votes balance for `account`"
      },
      "increaseAllowance(address,uint256)": {
        "details": "Atomically increases the allowance granted to `spender` by the caller. This is an alternative to {approve} that can be used as a mitigation for problems described in {IERC20-approve}. Emits an {Approval} event indicating the updated allowance. Requirements: - `spender` cannot be the zero address."
      },
      "name()": {
        "details": "Returns the name of the token."
      },
      "nonces(address)": {
        "details": "See {IERC20Permit-nonces}."
      },
      "numCheckpoints(address)": {
        "details": "Get number of checkpoints for `account`."
      },
      "permit(address,address,uint256,uint256,uint8,bytes32,bytes32)": {
        "details": "See {IERC20Permit-permit}."
      },
      "renounceAdmin()": {
        "details": "Renounce admin if no one should have it anymore.*"
      },
      "setPunishmentFee(uint256)": {
        "details": "How much of the bot's trade to take back",
        "params": {
          "_newFee": "1% = 1 * 10^5*"
        }
      },
      "symbol()": {
        "details": "Returns the symbol of the token, usually a shorter version of the name."
      },
      "toggleDex(address)": {
        "details": "Turn a new dex address either on or off",
        "params": {
          "_newDex": "The address of the dex.*"
        }
      },
      "totalSupply()": {
        "details": "See {IERC20-totalSupply}."
      },
      "transfer(address,uint256)": {
        "details": "See {IERC20-transfer}. Requirements: - `to` cannot be the zero address. - the caller must have a balance of at least `amount`."
      },
      "transferAdmin(address)": {
        "details": "Make a new admin pending. I hate 1-step ownership transfers. They terrify me.",
        "params": {
          "_newAdmin": "The new address to transfer to.*"
        }
      },
      "transferFrom(address,address,uint256)": {
        "details": "See {IERC20-transferFrom}. Emits an {Approval} event indicating the updated allowance. This is not required by the EIP. See the note at the beginning of {ERC20}. NOTE: Does not update the allowance if the current allowance is the maximum `uint256`. Requirements: - `from` and `to` cannot be the zero address. - `from` must have a balance of at least `amount`. - the caller must have allowance for ``from``'s tokens of at least `amount`."
      }
    },
    "title": "RobinHoo Coin Based on Inedible Coin https://www.inediblecoin.com/ 0x3486b751a36f731a1bebff779374bad635864919 The difference is that RobinHoo **allows** sandwich attack BUT it tries to punish the bot - taking a small fee from it's balance and giving it back to the victim. In case it can't, the 2nd sandwiching transaction will revert. Note: this version doesn't prevent double sandwiching yet.*",
    "version": 1
  },
  "userdoc": {
    "kind": "user",
    "methods": {},
    "version": 1
  }
}